{
  "address": "0x933421675cDC8c280e5F21f0e061E77849293dba",
  "abi": [
    {
      "inputs": [
        {
          "internalType": "address",
          "name": "token_addr",
          "type": "address"
        },
        {
          "internalType": "uint256",
          "name": "min_time",
          "type": "uint256"
        }
      ],
      "stateMutability": "nonpayable",
      "type": "constructor"
    },
    {
      "anonymous": false,
      "inputs": [
        {
          "indexed": true,
          "internalType": "address",
          "name": "provider",
          "type": "address"
        },
        {
          "indexed": false,
          "internalType": "uint256",
          "name": "value",
          "type": "uint256"
        },
        {
          "indexed": true,
          "internalType": "uint256",
          "name": "locktime",
          "type": "uint256"
        },
        {
          "indexed": false,
          "internalType": "enum VotingEscrow.DepositType",
          "name": "deposit_type",
          "type": "uint8"
        },
        {
          "indexed": false,
          "internalType": "uint256",
          "name": "ts",
          "type": "uint256"
        }
      ],
      "name": "Deposit",
      "type": "event"
    },
    {
      "anonymous": false,
      "inputs": [
        {
          "indexed": true,
          "internalType": "address",
          "name": "previousOwner",
          "type": "address"
        },
        {
          "indexed": true,
          "internalType": "address",
          "name": "newOwner",
          "type": "address"
        }
      ],
      "name": "OwnershipTransferred",
      "type": "event"
    },
    {
      "anonymous": false,
      "inputs": [
        {
          "indexed": false,
          "internalType": "uint256",
          "name": "prevSupply",
          "type": "uint256"
        },
        {
          "indexed": false,
          "internalType": "uint256",
          "name": "supply",
          "type": "uint256"
        }
      ],
      "name": "Supply",
      "type": "event"
    },
    {
      "anonymous": false,
      "inputs": [
        {
          "indexed": true,
          "internalType": "address",
          "name": "provider",
          "type": "address"
        },
        {
          "indexed": false,
          "internalType": "uint256",
          "name": "value",
          "type": "uint256"
        },
        {
          "indexed": false,
          "internalType": "uint256",
          "name": "ts",
          "type": "uint256"
        }
      ],
      "name": "Withdraw",
      "type": "event"
    },
    {
      "inputs": [],
      "name": "MAXTIME",
      "outputs": [
        {
          "internalType": "uint256",
          "name": "",
          "type": "uint256"
        }
      ],
      "stateMutability": "view",
      "type": "function"
    },
    {
      "inputs": [],
      "name": "MINTIME",
      "outputs": [
        {
          "internalType": "uint256",
          "name": "",
          "type": "uint256"
        }
      ],
      "stateMutability": "view",
      "type": "function"
    },
    {
      "inputs": [
        {
          "internalType": "address",
          "name": "addr",
          "type": "address"
        }
      ],
      "name": "add_to_whitelist",
      "outputs": [],
      "stateMutability": "nonpayable",
      "type": "function"
    },
    {
      "inputs": [
        {
          "internalType": "address",
          "name": "addr",
          "type": "address"
        }
      ],
      "name": "balanceOf",
      "outputs": [
        {
          "internalType": "uint256",
          "name": "",
          "type": "uint256"
        }
      ],
      "stateMutability": "view",
      "type": "function"
    },
    {
      "inputs": [
        {
          "internalType": "address",
          "name": "addr",
          "type": "address"
        },
        {
          "internalType": "uint256",
          "name": "_block",
          "type": "uint256"
        }
      ],
      "name": "balanceOfAt",
      "outputs": [
        {
          "internalType": "uint256",
          "name": "",
          "type": "uint256"
        }
      ],
      "stateMutability": "view",
      "type": "function"
    },
    {
      "inputs": [
        {
          "internalType": "address",
          "name": "addr",
          "type": "address"
        },
        {
          "internalType": "uint256",
          "name": "_t",
          "type": "uint256"
        }
      ],
      "name": "balanceOfAtT",
      "outputs": [
        {
          "internalType": "uint256",
          "name": "",
          "type": "uint256"
        }
      ],
      "stateMutability": "view",
      "type": "function"
    },
    {
      "inputs": [
        {
          "internalType": "address",
          "name": "_newController",
          "type": "address"
        }
      ],
      "name": "changeController",
      "outputs": [],
      "stateMutability": "nonpayable",
      "type": "function"
    },
    {
      "inputs": [],
      "name": "checkpoint",
      "outputs": [],
      "stateMutability": "nonpayable",
      "type": "function"
    },
    {
      "inputs": [
        {
          "internalType": "address",
          "name": "",
          "type": "address"
        }
      ],
      "name": "contracts_whitelist",
      "outputs": [
        {
          "internalType": "bool",
          "name": "",
          "type": "bool"
        }
      ],
      "stateMutability": "view",
      "type": "function"
    },
    {
      "inputs": [],
      "name": "controller",
      "outputs": [
        {
          "internalType": "address",
          "name": "",
          "type": "address"
        }
      ],
      "stateMutability": "view",
      "type": "function"
    },
    {
      "inputs": [
        {
          "internalType": "uint256",
          "name": "_value",
          "type": "uint256"
        },
        {
          "internalType": "uint256",
          "name": "_unlock_time",
          "type": "uint256"
        }
      ],
      "name": "create_lock",
      "outputs": [],
      "stateMutability": "nonpayable",
      "type": "function"
    },
    {
      "inputs": [],
      "name": "decimals",
      "outputs": [
        {
          "internalType": "uint8",
          "name": "",
          "type": "uint8"
        }
      ],
      "stateMutability": "view",
      "type": "function"
    },
    {
      "inputs": [
        {
          "internalType": "address",
          "name": "_addr",
          "type": "address"
        },
        {
          "internalType": "uint256",
          "name": "_value",
          "type": "uint256"
        }
      ],
      "name": "deposit_for",
      "outputs": [],
      "stateMutability": "nonpayable",
      "type": "function"
    },
    {
      "inputs": [],
      "name": "epoch",
      "outputs": [
        {
          "internalType": "uint256",
          "name": "",
          "type": "uint256"
        }
      ],
      "stateMutability": "view",
      "type": "function"
    },
    {
      "inputs": [
        {
          "internalType": "address",
          "name": "addr",
          "type": "address"
        }
      ],
      "name": "get_last_user_slope",
      "outputs": [
        {
          "internalType": "int128",
          "name": "",
          "type": "int128"
        }
      ],
      "stateMutability": "view",
      "type": "function"
    },
    {
      "inputs": [
        {
          "internalType": "uint256",
          "name": "_value",
          "type": "uint256"
        }
      ],
      "name": "increase_amount",
      "outputs": [],
      "stateMutability": "nonpayable",
      "type": "function"
    },
    {
      "inputs": [
        {
          "internalType": "uint256",
          "name": "_value",
          "type": "uint256"
        },
        {
          "internalType": "uint256",
          "name": "_unlock_time",
          "type": "uint256"
        }
      ],
      "name": "increase_amount_and_time",
      "outputs": [],
      "stateMutability": "nonpayable",
      "type": "function"
    },
    {
      "inputs": [
        {
          "internalType": "uint256",
          "name": "_unlock_time",
          "type": "uint256"
        }
      ],
      "name": "increase_unlock_time",
      "outputs": [],
      "stateMutability": "nonpayable",
      "type": "function"
    },
    {
      "inputs": [
        {
          "internalType": "address",
          "name": "",
          "type": "address"
        }
      ],
      "name": "locked",
      "outputs": [
        {
          "internalType": "int128",
          "name": "amount",
          "type": "int128"
        },
        {
          "internalType": "uint256",
          "name": "end",
          "type": "uint256"
        }
      ],
      "stateMutability": "view",
      "type": "function"
    },
    {
      "inputs": [
        {
          "internalType": "address",
          "name": "_addr",
          "type": "address"
        }
      ],
      "name": "locked__end",
      "outputs": [
        {
          "internalType": "uint256",
          "name": "",
          "type": "uint256"
        }
      ],
      "stateMutability": "view",
      "type": "function"
    },
    {
      "inputs": [],
      "name": "name",
      "outputs": [
        {
          "internalType": "string",
          "name": "",
          "type": "string"
        }
      ],
      "stateMutability": "view",
      "type": "function"
    },
    {
      "inputs": [],
      "name": "owner",
      "outputs": [
        {
          "internalType": "address",
          "name": "",
          "type": "address"
        }
      ],
      "stateMutability": "view",
      "type": "function"
    },
    {
      "inputs": [
        {
          "internalType": "uint256",
          "name": "",
          "type": "uint256"
        }
      ],
      "name": "point_history",
      "outputs": [
        {
          "internalType": "int128",
          "name": "bias",
          "type": "int128"
        },
        {
          "internalType": "int128",
          "name": "slope",
          "type": "int128"
        },
        {
          "internalType": "uint256",
          "name": "ts",
          "type": "uint256"
        },
        {
          "internalType": "uint256",
          "name": "blk",
          "type": "uint256"
        }
      ],
      "stateMutability": "view",
      "type": "function"
    },
    {
      "inputs": [
        {
          "internalType": "address",
          "name": "addr",
          "type": "address"
        }
      ],
      "name": "remove_from_whitelist",
      "outputs": [],
      "stateMutability": "nonpayable",
      "type": "function"
    },
    {
      "inputs": [],
      "name": "renounceOwnership",
      "outputs": [],
      "stateMutability": "nonpayable",
      "type": "function"
    },
    {
      "inputs": [
        {
          "internalType": "uint256",
          "name": "",
          "type": "uint256"
        }
      ],
      "name": "slope_changes",
      "outputs": [
        {
          "internalType": "int128",
          "name": "",
          "type": "int128"
        }
      ],
      "stateMutability": "view",
      "type": "function"
    },
    {
      "inputs": [],
      "name": "supply",
      "outputs": [
        {
          "internalType": "uint256",
          "name": "",
          "type": "uint256"
        }
      ],
      "stateMutability": "view",
      "type": "function"
    },
    {
      "inputs": [],
      "name": "symbol",
      "outputs": [
        {
          "internalType": "string",
          "name": "",
          "type": "string"
        }
      ],
      "stateMutability": "view",
      "type": "function"
    },
    {
      "inputs": [],
      "name": "token",
      "outputs": [
        {
          "internalType": "address",
          "name": "",
          "type": "address"
        }
      ],
      "stateMutability": "view",
      "type": "function"
    },
    {
      "inputs": [],
      "name": "totalSupply",
      "outputs": [
        {
          "internalType": "uint256",
          "name": "",
          "type": "uint256"
        }
      ],
      "stateMutability": "view",
      "type": "function"
    },
    {
      "inputs": [
        {
          "internalType": "uint256",
          "name": "_block",
          "type": "uint256"
        }
      ],
      "name": "totalSupplyAt",
      "outputs": [
        {
          "internalType": "uint256",
          "name": "",
          "type": "uint256"
        }
      ],
      "stateMutability": "view",
      "type": "function"
    },
    {
      "inputs": [
        {
          "internalType": "uint256",
          "name": "t",
          "type": "uint256"
        }
      ],
      "name": "totalSupplyAtT",
      "outputs": [
        {
          "internalType": "uint256",
          "name": "",
          "type": "uint256"
        }
      ],
      "stateMutability": "view",
      "type": "function"
    },
    {
      "inputs": [
        {
          "internalType": "address",
          "name": "newOwner",
          "type": "address"
        }
      ],
      "name": "transferOwnership",
      "outputs": [],
      "stateMutability": "nonpayable",
      "type": "function"
    },
    {
      "inputs": [],
      "name": "transfersEnabled",
      "outputs": [
        {
          "internalType": "bool",
          "name": "",
          "type": "bool"
        }
      ],
      "stateMutability": "view",
      "type": "function"
    },
    {
      "inputs": [],
      "name": "unlock",
      "outputs": [],
      "stateMutability": "nonpayable",
      "type": "function"
    },
    {
      "inputs": [],
      "name": "unlocked",
      "outputs": [
        {
          "internalType": "bool",
          "name": "",
          "type": "bool"
        }
      ],
      "stateMutability": "view",
      "type": "function"
    },
    {
      "inputs": [
        {
          "internalType": "address",
          "name": "",
          "type": "address"
        }
      ],
      "name": "user_point_epoch",
      "outputs": [
        {
          "internalType": "uint256",
          "name": "",
          "type": "uint256"
        }
      ],
      "stateMutability": "view",
      "type": "function"
    },
    {
      "inputs": [
        {
          "internalType": "address",
          "name": "",
          "type": "address"
        },
        {
          "internalType": "uint256",
          "name": "",
          "type": "uint256"
        }
      ],
      "name": "user_point_history",
      "outputs": [
        {
          "internalType": "int128",
          "name": "bias",
          "type": "int128"
        },
        {
          "internalType": "int128",
          "name": "slope",
          "type": "int128"
        },
        {
          "internalType": "uint256",
          "name": "ts",
          "type": "uint256"
        },
        {
          "internalType": "uint256",
          "name": "blk",
          "type": "uint256"
        }
      ],
      "stateMutability": "view",
      "type": "function"
    },
    {
      "inputs": [
        {
          "internalType": "address",
          "name": "_addr",
          "type": "address"
        },
        {
          "internalType": "uint256",
          "name": "_idx",
          "type": "uint256"
        }
      ],
      "name": "user_point_history__ts",
      "outputs": [
        {
          "internalType": "uint256",
          "name": "",
          "type": "uint256"
        }
      ],
      "stateMutability": "view",
      "type": "function"
    },
    {
      "inputs": [],
      "name": "version",
      "outputs": [
        {
          "internalType": "string",
          "name": "",
          "type": "string"
        }
      ],
      "stateMutability": "view",
      "type": "function"
    },
    {
      "inputs": [],
      "name": "withdraw",
      "outputs": [],
      "stateMutability": "nonpayable",
      "type": "function"
    },
    {
      "inputs": [
        {
          "internalType": "uint256",
          "name": "_value",
          "type": "uint256"
        },
        {
          "internalType": "uint256",
          "name": "_unlock_time",
          "type": "uint256"
        }
      ],
      "name": "withdraw_and_create_lock",
      "outputs": [],
      "stateMutability": "nonpayable",
      "type": "function"
    }
  ],
  "transactionHash": "0xc257f1fcf5d780c4fe1b3452e2614ebef0c182c2e23770a3d28567c72eb7d785",
  "args": [
    "0x2F6F07CDcf3588944Bf4C42aC74ff24bF56e7590",
    2419200
  ],
  "numDeployments": 1,
  "solcInputHash": "820d81c0a9867d8302a65c3783f3d5fd",
  "bytecode": "0x60c06040523480156200001157600080fd5b50604051620039f6380380620039f683398101604081905262000034916200011f565b6200003f33620000cf565b6001805560609190911b6001600160601b03191660a052600080526006602052437f54cdd369e4e8a8515e52ca72ec816c2101831ad1f18bf44102ed171459c9b4fa55427f54cdd369e4e8a8515e52ca72ec816c2101831ad1f18bf44102ed171459c9b4f955600a8054600160a01b6001600160a81b03199091163360ff60a01b19161717905560805262000159565b600080546001600160a01b038381166001600160a01b0319831681178455604051919092169283917f8be0079c531659141344cd1fd0a4f28419497f9722a3daafe3b4186f6b6457e09190a35050565b6000806040838503121562000132578182fd5b82516001600160a01b038116811462000149578283fd5b6020939093015192949293505050565b60805160a05160601c61385f620001976000396000818161076c01528181611d6e01526120d90152600081816104a20152611ecb015261385f6000f3fe608060405234801561001057600080fd5b50600436106102de5760003560e01c8063715018a611610186578063bef97c87116100e3578063da020a1811610097578063f2fde38b11610071578063f2fde38b14610734578063f77c479114610747578063fc0c546a1461076757600080fd5b8063da020a1814610703578063ee00ef3a14610716578063eff7a6121461072157600080fd5b8063cbf9fe5f116100c8578063cbf9fe5f1461065d578063d07b705f146106a5578063d1febfb9146106b857600080fd5b8063bef97c8714610630578063c2c4c5c11461065557600080fd5b806395d89b411161013a578063a69df4b51161011f578063a69df4b5146105dc578063ac25f266146105e4578063adc63589146105f757600080fd5b806395d89b411461031f578063981b24d0146105c957600080fd5b80638da5cb5b1161016b5780638da5cb5b1461056e578063900cf0cf146105ad57806390fad1e6146105b657600080fd5b8063715018a6146105535780637c74a1741461055b57600080fd5b80633cebb8231161023f57806365fc3873116101f35780637116c60c116101cd5780637116c60c146104f7578063711974841461050a5780637142a6a61461054057600080fd5b806365fc3873146104c45780636a5e2650146104d757806370a08231146104e457600080fd5b80634ee2cd7e116102245780634ee2cd7e1461044e57806354fd4d50146104615780635b51c3081461049d57600080fd5b80633cebb823146104285780634957677c1461043b57600080fd5b806328d09d47116102965780633617a2041161027b5780633617a204146103da5780633a46273e1461040d5780633ccfd60b1461042057600080fd5b806328d09d4714610385578063313ce567146103c057600080fd5b806306fdde03116102c757806306fdde031461031f57806318160ddd146103685780632371eb231461037057600080fd5b8063010ae757146102e3578063047fc9aa14610316575b600080fd5b6103036102f1366004613315565b60086020526000908152604090205481565b6040519081526020015b60405180910390f35b61030360025481565b61035b6040518060400160405280600581526020017f766553544700000000000000000000000000000000000000000000000000000081525081565b60405161030d91906133cd565b61030361078e565b61038361037e366004613390565b61079e565b005b61039861039336600461332f565b6108ce565b60408051600f95860b81529390940b602084015292820152606081019190915260800161030d565b6103c8601281565b60405160ff909116815260200161030d565b6103fd6103e8366004613315565b600b6020526000908152604090205460ff1681565b604051901515815260200161030d565b61038361041b36600461332f565b610922565b610383610b04565b610383610436366004613315565b610b6a565b610383610449366004613378565b610bd5565b61030361045c36600461332f565b610cf6565b61035b6040518060400160405280600581526020017f312e302e3000000000000000000000000000000000000000000000000000000081525081565b6103037f000000000000000000000000000000000000000000000000000000000000000081565b6103836104d2366004613390565b6110af565b6003546103fd9060ff1681565b6103036104f2366004613315565b6111c0565b610303610505366004613378565b6111cc565b61052d610518366004613378565b600960205260009081526040902054600f0b81565b604051600f9190910b815260200161030d565b61038361054e366004613390565b6111d7565b6103836113ba565b61052d610569366004613315565b61142d565b60005473ffffffffffffffffffffffffffffffffffffffff165b60405173ffffffffffffffffffffffffffffffffffffffff909116815260200161030d565b61030360055481565b6103836105c4366004613315565b6114bb565b6103036105d7366004613378565b61156e565b610383611737565b6103836105f2366004613315565b6117cb565b610303610605366004613315565b73ffffffffffffffffffffffffffffffffffffffff1660009081526004602052604090206001015490565b600a546103fd9074010000000000000000000000000000000000000000900460ff1681565b610383611881565b61068b61066b366004613315565b60046020526000908152604090208054600190910154600f9190910b9082565b60408051600f9390930b835260208301919091520161030d565b6103036106b336600461332f565b611912565b6103986106c6366004613378565b600660205260009081526040902080546001820154600290920154600f82810b93700100000000000000000000000000000000909304900b919084565b61030361071136600461332f565b611925565b6103036305a39a8081565b61038361072f366004613378565b611995565b610383610742366004613315565b611aaf565b600a546105889073ffffffffffffffffffffffffffffffffffffffff1681565b6105887f000000000000000000000000000000000000000000000000000000000000000081565b600061079942611bab565b905090565b600260015414156107f65760405162461bcd60e51b815260206004820152601f60248201527f5265656e7472616e637947756172643a207265656e7472616e742063616c6c0060448201526064015b60405180910390fd5b600260015533321461086157336000908152600b602052604090205460ff166108615760405162461bcd60e51b815260206004820152601a60248201527f536d61727420636f6e7472616374206e6f7420616c6c6f77656400000000000060448201526064016107ed565b60035460ff16156108b45760405162461bcd60e51b815260206004820152601160248201527f756e6c6f636b656420676c6f62616c6c7900000000000000000000000000000060448201526064016107ed565b6108bc611c20565b6108c68282611e18565b505060018055565b600760205281600052604060002081633b9aca0081106108ed57600080fd5b6003020180546001820154600290920154600f82810b955070010000000000000000000000000000000090920490910b925084565b600260015414156109755760405162461bcd60e51b815260206004820152601f60248201527f5265656e7472616e637947756172643a207265656e7472616e742063616c6c0060448201526064016107ed565b600260015560035460ff16156109cd5760405162461bcd60e51b815260206004820152601160248201527f756e6c6f636b656420676c6f62616c6c7900000000000000000000000000000060448201526064016107ed565b73ffffffffffffffffffffffffffffffffffffffff821660009081526004602090815260409182902082518084019093528054600f90810b810b900b8352600101549082015281610a1d57600080fd5b60008160000151600f0b13610a745760405162461bcd60e51b815260206004820152601660248201527f4e6f206578697374696e67206c6f636b20666f756e640000000000000000000060448201526064016107ed565b42816020015111610aec5760405162461bcd60e51b8152602060048201526024808201527f43616e6e6f742061646420746f2065787069726564206c6f636b2e205769746860448201527f647261770000000000000000000000000000000000000000000000000000000060648201526084016107ed565b610afb83836000846000611fd5565b50506001805550565b60026001541415610b575760405162461bcd60e51b815260206004820152601f60248201527f5265656e7472616e637947756172643a207265656e7472616e742063616c6c0060448201526064016107ed565b6002600155610b64611c20565b60018055565b600a5473ffffffffffffffffffffffffffffffffffffffff163314610b8e57600080fd5b600a80547fffffffffffffffffffffffff00000000000000000000000000000000000000001673ffffffffffffffffffffffffffffffffffffffff92909216919091179055565b60026001541415610c285760405162461bcd60e51b815260206004820152601f60248201527f5265656e7472616e637947756172643a207265656e7472616e742063616c6c0060448201526064016107ed565b6002600155333214610c9357336000908152600b602052604090205460ff16610c935760405162461bcd60e51b815260206004820152601a60248201527f536d61727420636f6e7472616374206e6f7420616c6c6f77656400000000000060448201526064016107ed565b60035460ff1615610ce65760405162461bcd60e51b815260206004820152601160248201527f756e6c6f636b656420676c6f62616c6c7900000000000000000000000000000060448201526064016107ed565b610cef816121a6565b5060018055565b600043821115610d0557600080fd5b73ffffffffffffffffffffffffffffffffffffffff8316600090815260086020526040812054815b6080811015610dfe57818310610d4257610dfe565b60006002610d5084866134dc565b610d5b9060016134dc565b610d659190613568565b73ffffffffffffffffffffffffffffffffffffffff88166000908152600760205260409020909150869082633b9aca008110610dca577f4e487b7100000000000000000000000000000000000000000000000000000000600052603260045260246000fd5b600302016002015411610ddf57809350610ded565b610dea60018261374f565b92505b50610df781613792565b9050610d2d565b5073ffffffffffffffffffffffffffffffffffffffff8516600090815260076020526040812083633b9aca008110610e5f577f4e487b7100000000000000000000000000000000000000000000000000000000600052603260045260246000fd5b60408051608081018252600392909202929092018054600f81810b810b810b8452700100000000000000000000000000000000909104810b810b900b602083015260018101549282019290925260029091015460608201526005549091506000610ec987836122c2565b600081815260066020908152604080832081516080810183528154600f81810b810b810b8352700100000000000000000000000000000000909104810b810b900b938101939093526001810154918301919091526002015460608201529192508084841015610fd2576000600681610f428760016134dc565b8152602080820192909252604090810160002081516080810183528154600f81810b810b810b8352700100000000000000000000000000000000909104810b810b900b93810193909352600181015491830191909152600201546060808301829052860151919250610fb4919061374f565b925083604001518160400151610fca919061374f565b915050610ff6565b6060830151610fe1904361374f565b9150826040015142610ff3919061374f565b90505b60408301518215611033578284606001518c611012919061374f565b61101c908461362e565b6110269190613568565b61103090826134dc565b90505b6040870151611042908261374f565b8760200151611051919061357c565b8751889061106090839061366b565b600f90810b810b90915288516000910b12905061109b57505093516fffffffffffffffffffffffffffffffff1696506110a995505050505050565b600099505050505050505050505b92915050565b600260015414156111025760405162461bcd60e51b815260206004820152601f60248201527f5265656e7472616e637947756172643a207265656e7472616e742063616c6c0060448201526064016107ed565b600260015533321461116d57336000908152600b602052604090205460ff1661116d5760405162461bcd60e51b815260206004820152601a60248201527f536d61727420636f6e7472616374206e6f7420616c6c6f77656400000000000060448201526064016107ed565b60035460ff16156108bc5760405162461bcd60e51b815260206004820152601160248201527f756e6c6f636b656420676c6f62616c6c7900000000000000000000000000000060448201526064016107ed565b60006110a9824261234c565b60006110a982611bab565b6002600154141561122a5760405162461bcd60e51b815260206004820152601f60248201527f5265656e7472616e637947756172643a207265656e7472616e742063616c6c0060448201526064016107ed565b600260015533321461129557336000908152600b602052604090205460ff166112955760405162461bcd60e51b815260206004820152601a60248201527f536d61727420636f6e7472616374206e6f7420616c6c6f77656400000000000060448201526064016107ed565b60035460ff16156112e85760405162461bcd60e51b815260206004820152601160248201527f756e6c6f636b656420676c6f62616c6c7900000000000000000000000000000060448201526064016107ed565b60008211806112f75750600081115b6113695760405162461bcd60e51b815260206004820152602160248201527f56616c756520616e6420556e6c6f636b2063616e6e6f7420626f74682062652060448201527f300000000000000000000000000000000000000000000000000000000000000060648201526084016107ed565b6000821180156113795750600081115b1561139557611387826121a6565b6113908161248a565b6108c6565b6000821180156113a3575080155b156113b157611390826121a6565b6108c68161248a565b60005473ffffffffffffffffffffffffffffffffffffffff1633146114215760405162461bcd60e51b815260206004820181905260248201527f4f776e61626c653a2063616c6c6572206973206e6f7420746865206f776e657260448201526064016107ed565b61142b6000612645565b565b73ffffffffffffffffffffffffffffffffffffffff81166000908152600860209081526040808320546007909252822081633b9aca008110611498577f4e487b7100000000000000000000000000000000000000000000000000000000600052603260045260246000fd5b60030201547001000000000000000000000000000000009004600f0b9392505050565b60005473ffffffffffffffffffffffffffffffffffffffff1633146115225760405162461bcd60e51b815260206004820181905260248201527f4f776e61626c653a2063616c6c6572206973206e6f7420746865206f776e657260448201526064016107ed565b73ffffffffffffffffffffffffffffffffffffffff166000908152600b6020526040902080547fffffffffffffffffffffffffffffffffffffffffffffffffffffffffffffff00169055565b60004382111561157d57600080fd5b600554600061158c84836122c2565b600081815260066020908152604080832081516080810183528154600f81810b810b810b8352700100000000000000000000000000000000909104810b810b900b93810193909352600181015491830191909152600201546060820152919250838310156116c55760006006816116048660016134dc565b8152602080820192909252604090810160002081516080810183528154600f81810b810b810b8352700100000000000000000000000000000000909104810b810b900b93810193909352600181015491830191909152600201546060808301829052850151919250146116bf5782606001518160600151611685919061374f565b83604001518260400151611699919061374f565b60608501516116a8908a61374f565b6116b2919061362e565b6116bc9190613568565b91505b50611714565b438260600151146117145760608201516116df904361374f565b60408301516116ee904261374f565b60608401516116fd908961374f565b611707919061362e565b6117119190613568565b90505b61172d8282846040015161172891906134dc565b6126ba565b9695505050505050565b60005473ffffffffffffffffffffffffffffffffffffffff16331461179e5760405162461bcd60e51b815260206004820181905260248201527f4f776e61626c653a2063616c6c6572206973206e6f7420746865206f776e657260448201526064016107ed565b600380547fffffffffffffffffffffffffffffffffffffffffffffffffffffffffffffff00166001179055565b60005473ffffffffffffffffffffffffffffffffffffffff1633146118325760405162461bcd60e51b815260206004820181905260248201527f4f776e61626c653a2063616c6c6572206973206e6f7420746865206f776e657260448201526064016107ed565b73ffffffffffffffffffffffffffffffffffffffff166000908152600b6020526040902080547fffffffffffffffffffffffffffffffffffffffffffffffffffffffffffffff00166001179055565b60035460ff16156118d45760405162461bcd60e51b815260206004820152601160248201527f756e6c6f636b656420676c6f62616c6c7900000000000000000000000000000060448201526064016107ed565b61142b600060405180604001604052806000600f0b8152602001600081525060405180604001604052806000600f0b815260200160008152506127cd565b600061191e838361234c565b9392505050565b73ffffffffffffffffffffffffffffffffffffffff8216600090815260076020526040812082633b9aca008110611985577f4e487b7100000000000000000000000000000000000000000000000000000000600052603260045260246000fd5b6003020160010154905092915050565b600260015414156119e85760405162461bcd60e51b815260206004820152601f60248201527f5265656e7472616e637947756172643a207265656e7472616e742063616c6c0060448201526064016107ed565b6002600155333214611a5357336000908152600b602052604090205460ff16611a535760405162461bcd60e51b815260206004820152601a60248201527f536d61727420636f6e7472616374206e6f7420616c6c6f77656400000000000060448201526064016107ed565b60035460ff1615611aa65760405162461bcd60e51b815260206004820152601160248201527f756e6c6f636b656420676c6f62616c6c7900000000000000000000000000000060448201526064016107ed565b610cef8161248a565b60005473ffffffffffffffffffffffffffffffffffffffff163314611b165760405162461bcd60e51b815260206004820181905260248201527f4f776e61626c653a2063616c6c6572206973206e6f7420746865206f776e657260448201526064016107ed565b73ffffffffffffffffffffffffffffffffffffffff8116611b9f5760405162461bcd60e51b815260206004820152602660248201527f4f776e61626c653a206e6577206f776e657220697320746865207a65726f206160448201527f646472657373000000000000000000000000000000000000000000000000000060648201526084016107ed565b611ba881612645565b50565b600554600081815260066020908152604080832081516080810183528154600f81810b810b810b8352700100000000000000000000000000000000909104810b810b900b93810193909352600181015491830191909152600201546060820152909190611c1881856126ba565b949350505050565b3360009081526004602090815260409182902082518084019093528054600f90810b810b810b80855260019092015492840192909252600354910b9060ff16611cb7578160200151421015611cb75760405162461bcd60e51b815260206004820152601660248201527f546865206c6f636b206469646e2774206578706972650000000000000000000060448201526064016107ed565b60408051808201825260008082526020808301828152338352600490915292902090518154600f9190910b6fffffffffffffffffffffffffffffffff167fffffffffffffffffffffffffffffffff000000000000000000000000000000009091161781559051600190910155600254611d30828261374f565b6002556040805180820190915260008082526020820152611d5490339085906127cd565b611d9573ffffffffffffffffffffffffffffffffffffffff7f0000000000000000000000000000000000000000000000000000000000000000163384612f9a565b6040805183815242602082015233917ff279e6a1f5e320cca91135676d9cb6e44ca8a08c0b88342bcdb1144f6511b568910160405180910390a27f5e2aa66efd74cce82b21852e317e5490d9ecc9e6bb953ae24d90851258cc2f5c81611dfb848261374f565b6040805192835260208301919091520160405180910390a1505050565b60008211611e2557600080fd5b3360009081526004602090815260409182902082518084019093528054600f90810b810b810b80855260019092015492840192909252900b15611eaa5760405162461bcd60e51b815260206004820152601960248201527f5769746864726177206f6c6420746f6b656e732066697273740000000000000060448201526064016107ed565b600062093a80611eba8185613568565b611ec4919061362e565b9050611ef07f0000000000000000000000000000000000000000000000000000000000000000426134dc565b811015611f645760405162461bcd60e51b8152602060048201526024808201527f566f74696e67206c6f636b206d757374206265206174206c65617374204d494e60448201527f54494d450000000000000000000000000000000000000000000000000000000060648201526084016107ed565b611f726305a39a80426134dc565b811115611fc15760405162461bcd60e51b815260206004820152601e60248201527f566f74696e67206c6f636b2063616e2062652033207965617273206d6178000060448201526064016107ed565b611fcf338583856001611fd5565b50505050565b6002548290611fe486826134dc565b6002556040805180820190915260008082526020820152825160208085015190830152600f90810b900b815282518790849061202190839061346d565b600f90810b900b905250851561203957602083018690525b73ffffffffffffffffffffffffffffffffffffffff8816600090815260046020908152604090912084518154600f9190910b6fffffffffffffffffffffffffffffffff167fffffffffffffffffffffffffffffffff00000000000000000000000000000000909116178155908401516001909101556120b98882856127cd565b86156121015761210173ffffffffffffffffffffffffffffffffffffffff7f00000000000000000000000000000000000000000000000000000000000000001689308a61306e565b82602001518873ffffffffffffffffffffffffffffffffffffffff167fbe9cf0e939c614fad640a623a53ba0a807c8cb503c4c4c8dacabe27b86ff2dd58987426040516121509392919061341e565b60405180910390a37f5e2aa66efd74cce82b21852e317e5490d9ecc9e6bb953ae24d90851258cc2f5c8261218489826134dc565b6040805192835260208301919091520160405180910390a15050505050505050565b3360009081526004602090815260409182902082518084019093528054600f90810b810b900b83526001015490820152816121e057600080fd5b60008160000151600f0b136122375760405162461bcd60e51b815260206004820152601660248201527f4e6f206578697374696e67206c6f636b20666f756e640000000000000000000060448201526064016107ed565b428160200151116122af5760405162461bcd60e51b8152602060048201526024808201527f43616e6e6f742061646420746f2065787069726564206c6f636b2e205769746860448201527f647261770000000000000000000000000000000000000000000000000000000060648201526084016107ed565b6122be33836000846002611fd5565b5050565b60008082815b6080811015612342578183106122dd57612342565b600060026122eb84866134dc565b6122f69060016134dc565b6123009190613568565b600081815260066020526040902060020154909150871061232357809350612331565b61232e60018261374f565b92505b5061233b81613792565b90506122c8565b5090949350505050565b73ffffffffffffffffffffffffffffffffffffffff8216600090815260086020526040812054806123815760009150506110a9565b73ffffffffffffffffffffffffffffffffffffffff8416600090815260076020526040812082633b9aca0081106123e1577f4e487b7100000000000000000000000000000000000000000000000000000000600052603260045260246000fd5b60408051608081018252600392909202929092018054600f81810b810b810b8452700100000000000000000000000000000000909104810b810b900b60208301526001810154928201839052600201546060820152915061244290856136db565b8160200151612451919061357c565b8151829061246090839061366b565b600f90810b810b90915282516000910b1215905061247d57600081525b51600f0b91506110a99050565b33600090815260046020908152604080832081518083019092528054600f90810b810b900b825260010154918101919091529062093a806124cb8185613568565b6124d5919061362e565b90504282602001511161252a5760405162461bcd60e51b815260206004820152600c60248201527f4c6f636b2065787069726564000000000000000000000000000000000000000060448201526064016107ed565b60008260000151600f0b136125815760405162461bcd60e51b815260206004820152601160248201527f4e6f7468696e67206973206c6f636b656400000000000000000000000000000060448201526064016107ed565b816020015181116125d45760405162461bcd60e51b815260206004820152601f60248201527f43616e206f6e6c7920696e637265617365206c6f636b206475726174696f6e0060448201526064016107ed565b6125e26305a39a80426134dc565b8111156126315760405162461bcd60e51b815260206004820152601e60248201527f566f74696e67206c6f636b2063616e2062652033207965617273206d6178000060448201526064016107ed565b61264033600083856003611fd5565b505050565b6000805473ffffffffffffffffffffffffffffffffffffffff8381167fffffffffffffffffffffffff0000000000000000000000000000000000000000831681178455604051919092169283917f8be0079c531659141344cd1fd0a4f28419497f9722a3daafe3b4186f6b6457e09190a35050565b600080839050600062093a808083604001516126d69190613568565b6126e0919061362e565b905060005b60ff81101561279c576126fb62093a80836134dc565b915060008583111561270f57859250612723565b50600082815260096020526040902054600f0b5b6040840151612732908461374f565b8460200151612741919061357c565b8451859061275090839061366b565b600f90810b900b90525082861415612768575061279c565b808460200181815161277a919061346d565b600f90810b900b905250506040830182905261279581613792565b90506126e5565b5060008260000151600f0b12156127b257600082525b50516fffffffffffffffffffffffffffffffff169392505050565b604080516080810182526000808252602082018190529181018290526060810191909152604080516080810182526000808252602082018190529181018290526060810191909152600554600090819073ffffffffffffffffffffffffffffffffffffffff88161561295f57428760200151118015612853575060008760000151600f0b135b156128a0578651612869906305a39a80906134f4565b600f90810b900b60208087019190915287015161288790429061374f565b8560200151612896919061357c565b600f90810b900b85525b4286602001511180156128ba575060008660000151600f0b135b156129075785516128d0906305a39a80906134f4565b600f90810b900b6020808601919091528601516128ee90429061374f565b84602001516128fd919061357c565b600f90810b900b84525b602080880151600090815260098252604090205490870151600f9190910b93501561295f578660200151866020015114156129445782915061295f565b602080870151600090815260099091526040902054600f0b91505b6040805160808101825260008082526020820152429181019190915243606082015281156129e9575060008181526006602090815260409182902082516080810184528154600f81810b810b810b8352700100000000000000000000000000000000909104810b810b900b9281019290925260018101549282019290925260029091015460608201525b604081015160608201518190600042831015612a3c576040850151612a0e904261374f565b6060860151612a1d904361374f565b612a2f90670de0b6b3a764000061362e565b612a399190613568565b90505b600062093a80612a4c8187613568565b612a56919061362e565b905060005b60ff811015612beb57612a7162093a80836134dc565b9150600042831115612a8557429250612a99565b50600082815260096020526040902054600f0b5b612aa3878461374f565b8860200151612ab2919061357c565b88518990612ac190839061366b565b600f90810b900b905250602088018051829190612adf90839061346d565b600f90810b810b90915289516000910b12159050612afc57600088525b60008860200151600f0b1215612b1457600060208901525b604088018390529195508591670de0b6b3a7640000612b33878561374f565b612b3d908661362e565b612b479190613568565b612b5190866134dc565b6060890152612b6160018a6134dc565b985042831415612b775750436060880152612beb565b6000898152600660209081526040918290208a51918b0151600f90810b6fffffffffffffffffffffffffffffffff908116700100000000000000000000000000000000029390910b16919091178155908901516001820155606089015160029091015550612be481613792565b9050612a5b565b50600587905573ffffffffffffffffffffffffffffffffffffffff8e1615612c91578a602001518a60200151612c21919061366b565b86602001818151612c32919061346d565b600f90810b900b9052508a518a51612c4a919061366b565b86518790612c5990839061346d565b600f90810b810b90915260208801516000910b12159050612c7c57600060208701525b60008660000151600f0b1215612c9157600086525b600087815260066020908152604091829020885191890151600f90810b6fffffffffffffffffffffffffffffffff908116700100000000000000000000000000000000029390910b16919091178155908701516001820155606087015160029091015573ffffffffffffffffffffffffffffffffffffffff8e1615612f8a57428d602001511115612da25760208b0151612d2b908a61346d565b98508c602001518c602001511415612d4f5760208a0151612d4c908a61366b565b98505b60208d810151600090815260099091526040902080547fffffffffffffffffffffffffffffffff00000000000000000000000000000000166fffffffffffffffffffffffffffffffff600f8c900b161790555b428c602001511115612e22578c602001518c602001511115612e225760208a0151612dcd908961366b565b60208d810151600090815260099091526040902080547fffffffffffffffffffffffffffffffff00000000000000000000000000000000166fffffffffffffffffffffffffffffffff600f84900b1617905597505b73ffffffffffffffffffffffffffffffffffffffff8e166000908152600860205260408120548f9190612e569060016134dc565b905080600860008473ffffffffffffffffffffffffffffffffffffffff1673ffffffffffffffffffffffffffffffffffffffff16815260200190815260200160002081905550428c6040018181525050438c60600181815250508b600760008473ffffffffffffffffffffffffffffffffffffffff1673ffffffffffffffffffffffffffffffffffffffff16815260200190815260200160002082633b9aca008110612f2b577f4e487b7100000000000000000000000000000000000000000000000000000000600052603260045260246000fd5b82516020840151600f90810b6fffffffffffffffffffffffffffffffff908116700100000000000000000000000000000000029290910b1617600391909102919091019081556040820151600182015560609091015160029091015550505b5050505050505050505050505050565b60405173ffffffffffffffffffffffffffffffffffffffff83166024820152604481018290526126409084907fa9059cbb00000000000000000000000000000000000000000000000000000000906064015b604080517fffffffffffffffffffffffffffffffffffffffffffffffffffffffffffffffe08184030181529190526020810180517bffffffffffffffffffffffffffffffffffffffffffffffffffffffff167fffffffff00000000000000000000000000000000000000000000000000000000909316929092179091526130cc565b60405173ffffffffffffffffffffffffffffffffffffffff80851660248301528316604482015260648101829052611fcf9085907f23b872dd0000000000000000000000000000000000000000000000000000000090608401612fec565b600061312e826040518060400160405280602081526020017f5361666545524332303a206c6f772d6c6576656c2063616c6c206661696c65648152508573ffffffffffffffffffffffffffffffffffffffff166131be9092919063ffffffff16565b805190915015612640578080602001905181019061314c9190613358565b6126405760405162461bcd60e51b815260206004820152602a60248201527f5361666545524332303a204552433230206f7065726174696f6e20646964206e60448201527f6f7420737563636565640000000000000000000000000000000000000000000060648201526084016107ed565b6060611c1884846000858573ffffffffffffffffffffffffffffffffffffffff85163b61322d5760405162461bcd60e51b815260206004820152601d60248201527f416464726573733a2063616c6c20746f206e6f6e2d636f6e747261637400000060448201526064016107ed565b6000808673ffffffffffffffffffffffffffffffffffffffff16858760405161325691906133b1565b60006040518083038185875af1925050503d8060008114613293576040519150601f19603f3d011682016040523d82523d6000602084013e613298565b606091505b50915091506132a88282866132b3565b979650505050505050565b606083156132c257508161191e565b8251156132d25782518084602001fd5b8160405162461bcd60e51b81526004016107ed91906133cd565b803573ffffffffffffffffffffffffffffffffffffffff8116811461331057600080fd5b919050565b600060208284031215613326578081fd5b61191e826132ec565b60008060408385031215613341578081fd5b61334a836132ec565b946020939093013593505050565b600060208284031215613369578081fd5b8151801515811461191e578182fd5b600060208284031215613389578081fd5b5035919050565b600080604083850312156133a2578182fd5b50508035926020909101359150565b600082516133c3818460208701613766565b9190910192915050565b60208152600082518060208401526133ec816040850160208701613766565b601f017fffffffffffffffffffffffffffffffffffffffffffffffffffffffffffffffe0169190910160400192915050565b838152606081016004841061345c577f4e487b7100000000000000000000000000000000000000000000000000000000600052602160045260246000fd5b602082019390935260400152919050565b600081600f0b83600f0b828212826f7fffffffffffffffffffffffffffffff0382138115161561349f5761349f6137cb565b827fffffffffffffffffffffffffffffffff800000000000000000000000000000000382128116156134d3576134d36137cb565b50019392505050565b600082198211156134ef576134ef6137cb565b500190565b600081600f0b83600f0b8061350b5761350b6137fa565b7fffffffffffffffffffffffffffffffffffffffffffffffffffffffffffffffff81147fffffffffffffffffffffffffffffffff800000000000000000000000000000008314161561355f5761355f6137cb565b90059392505050565b600082613577576135776137fa565b500490565b600081600f0b83600f0b6f7fffffffffffffffffffffffffffffff838213848413838304851182821616156135b3576135b36137cb565b7fffffffffffffffffffffffffffffffff80000000000000000000000000000000868512868205861281841616156135ed576135ed6137cb565b878712925085820587128484161615613608576136086137cb565b8585058712818416161561361e5761361e6137cb565b5050509290910295945050505050565b6000817fffffffffffffffffffffffffffffffffffffffffffffffffffffffffffffffff0483118215151615613666576136666137cb565b500290565b600081600f0b83600f0b828112817fffffffffffffffffffffffffffffffff80000000000000000000000000000000018312811516156136ad576136ad6137cb565b816f7fffffffffffffffffffffffffffffff0183138116156136d1576136d16137cb565b5090039392505050565b6000808312837f800000000000000000000000000000000000000000000000000000000000000001831281151615613715576137156137cb565b837f7fffffffffffffffffffffffffffffffffffffffffffffffffffffffffffffff018313811615613749576137496137cb565b50500390565b600082821015613761576137616137cb565b500390565b60005b83811015613781578181015183820152602001613769565b83811115611fcf5750506000910152565b60007fffffffffffffffffffffffffffffffffffffffffffffffffffffffffffffffff8214156137c4576137c46137cb565b5060010190565b7f4e487b7100000000000000000000000000000000000000000000000000000000600052601160045260246000fd5b7f4e487b7100000000000000000000000000000000000000000000000000000000600052601260045260246000fdfea26469706673582212200a86b1fb12d3ffd99504fa8c25a828386baa6d11738230b356092ced0ef2a67164736f6c63430008040033",
  "devdoc": {
    "kind": "dev",
    "methods": {
      "add_to_whitelist(address)": {
        "params": {
          "addr": "Address to be whitelisted"
        }
      },
      "balanceOfAt(address,uint256)": {
        "details": "Adheres to MiniMe `balanceOfAt` interface: https://github.com/Giveth/minime",
        "params": {
          "_block": "Block to calculate the voting power at",
          "addr": "User's wallet address"
        },
        "returns": {
          "_0": "Voting power"
        }
      },
      "constructor": {
        "params": {
          "token_addr": "`ERC20CRV` token address"
        }
      },
      "create_lock(uint256,uint256)": {
        "params": {
          "_unlock_time": "Epoch time when tokens unlock, rounded down to whole weeks",
          "_value": "Amount to deposit"
        }
      },
      "deposit_for(address,uint256)": {
        "details": "Anyone (even a smart contract) can deposit for someone else, but      cannot extend their locktime and deposit for a brand new user",
        "params": {
          "_addr": "User's wallet address",
          "_value": "Amount to add to user's lock"
        }
      },
      "get_last_user_slope(address)": {
        "params": {
          "addr": "Address of the user wallet"
        },
        "returns": {
          "_0": "Value of the slope"
        }
      },
      "increase_amount(uint256)": {
        "params": {
          "_value": "Amount of tokens to deposit and add to the lock"
        }
      },
      "increase_amount_and_time(uint256,uint256)": {
        "params": {
          "_unlock_time": "New epoch time for unlocking"
        }
      },
      "increase_unlock_time(uint256)": {
        "params": {
          "_unlock_time": "New epoch time for unlocking"
        }
      },
      "locked__end(address)": {
        "params": {
          "_addr": "User wallet address"
        },
        "returns": {
          "_0": "Epoch time of the lock end"
        }
      },
      "owner()": {
        "details": "Returns the address of the current owner."
      },
      "remove_from_whitelist(address)": {
        "params": {
          "addr": "Address to be removed from whitelist"
        }
      },
      "renounceOwnership()": {
        "details": "Leaves the contract without owner. It will not be possible to call `onlyOwner` functions anymore. Can only be called by the current owner. NOTE: Renouncing ownership will leave the contract without an owner, thereby removing any functionality that is only available to the owner."
      },
      "totalSupplyAt(uint256)": {
        "params": {
          "_block": "Block to calculate the total voting power at"
        },
        "returns": {
          "_0": "Total voting power at `_block`"
        }
      },
      "transferOwnership(address)": {
        "details": "Transfers ownership of the contract to a new account (`newOwner`). Can only be called by the current owner."
      },
      "user_point_history__ts(address,uint256)": {
        "params": {
          "_addr": "User wallet address",
          "_idx": "User epoch number"
        },
        "returns": {
          "_0": "Epoch time of the checkpoint"
        }
      },
      "withdraw_and_create_lock(uint256,uint256)": {
        "params": {
          "_unlock_time": "Epoch time when tokens unlock, rounded down to whole weeks",
          "_value": "Amount to deposit"
        }
      }
    },
    "version": 1
  },
  "userdoc": {
    "kind": "user",
    "methods": {
      "add_to_whitelist(address)": {
        "notice": "Add address to whitelist smart contract depositors `addr`"
      },
      "balanceOfAt(address,uint256)": {
        "notice": "Measure voting power of `addr` at block height `_block`"
      },
      "checkpoint()": {
        "notice": "Record global data to checkpoint"
      },
      "constructor": {
        "notice": "Contract constructor"
      },
      "create_lock(uint256,uint256)": {
        "notice": "External function for _create_lock"
      },
      "deposit_for(address,uint256)": {
        "notice": "Deposit `_value` tokens for `_addr` and add to the lock"
      },
      "get_last_user_slope(address)": {
        "notice": "Get the most recently recorded rate of voting power decrease for `_addr`"
      },
      "increase_amount(uint256)": {
        "notice": "Deposit `_value` additional tokens for `msg.sender` without modifying the unlock time"
      },
      "increase_amount_and_time(uint256,uint256)": {
        "notice": "Extend the unlock time and/or for `msg.sender` to `_unlock_time`"
      },
      "increase_unlock_time(uint256)": {
        "notice": "Extend the unlock time for `msg.sender` to `_unlock_time`"
      },
      "locked__end(address)": {
        "notice": "Get timestamp when `_addr`'s lock finishes"
      },
      "remove_from_whitelist(address)": {
        "notice": "Remove a smart contract address from whitelist"
      },
      "totalSupplyAt(uint256)": {
        "notice": "Calculate total voting power at some point in the past"
      },
      "unlock()": {
        "notice": "Unlock all locked balances"
      },
      "user_point_history__ts(address,uint256)": {
        "notice": "Get the timestamp for checkpoint `_idx` for `_addr`"
      },
      "withdraw_and_create_lock(uint256,uint256)": {
        "notice": "Deposit `_value` tokens for `msg.sender` and lock until `_unlock_time`"
      }
    },
    "version": 1
  },
  "storageLayout": {
    "storage": [
      {
        "astId": 7,
        "contract": "contracts/VotingEscrow.sol:VotingEscrow",
        "label": "_owner",
        "offset": 0,
        "slot": "0",
        "type": "t_address"
      },
      {
        "astId": 118,
        "contract": "contracts/VotingEscrow.sol:VotingEscrow",
        "label": "_status",
        "offset": 0,
        "slot": "1",
        "type": "t_uint256"
      },
      {
        "astId": 1465,
        "contract": "contracts/VotingEscrow.sol:VotingEscrow",
        "label": "supply",
        "offset": 0,
        "slot": "2",
        "type": "t_uint256"
      },
      {
        "astId": 1467,
        "contract": "contracts/VotingEscrow.sol:VotingEscrow",
        "label": "unlocked",
        "offset": 0,
        "slot": "3",
        "type": "t_bool"
      },
      {
        "astId": 1472,
        "contract": "contracts/VotingEscrow.sol:VotingEscrow",
        "label": "locked",
        "offset": 0,
        "slot": "4",
        "type": "t_mapping(t_address,t_struct(LockedBalance)1399_storage)"
      },
      {
        "astId": 1474,
        "contract": "contracts/VotingEscrow.sol:VotingEscrow",
        "label": "epoch",
        "offset": 0,
        "slot": "5",
        "type": "t_uint256"
      },
      {
        "astId": 1479,
        "contract": "contracts/VotingEscrow.sol:VotingEscrow",
        "label": "point_history",
        "offset": 0,
        "slot": "6",
        "type": "t_mapping(t_uint256,t_struct(Point)1394_storage)"
      },
      {
        "astId": 1486,
        "contract": "contracts/VotingEscrow.sol:VotingEscrow",
        "label": "user_point_history",
        "offset": 0,
        "slot": "7",
        "type": "t_mapping(t_address,t_array(t_struct(Point)1394_storage)1000000000_storage)"
      },
      {
        "astId": 1490,
        "contract": "contracts/VotingEscrow.sol:VotingEscrow",
        "label": "user_point_epoch",
        "offset": 0,
        "slot": "8",
        "type": "t_mapping(t_address,t_uint256)"
      },
      {
        "astId": 1494,
        "contract": "contracts/VotingEscrow.sol:VotingEscrow",
        "label": "slope_changes",
        "offset": 0,
        "slot": "9",
        "type": "t_mapping(t_uint256,t_int128)"
      },
      {
        "astId": 1496,
        "contract": "contracts/VotingEscrow.sol:VotingEscrow",
        "label": "controller",
        "offset": 0,
        "slot": "10",
        "type": "t_address"
      },
      {
        "astId": 1498,
        "contract": "contracts/VotingEscrow.sol:VotingEscrow",
        "label": "transfersEnabled",
        "offset": 20,
        "slot": "10",
        "type": "t_bool"
      },
      {
        "astId": 1514,
        "contract": "contracts/VotingEscrow.sol:VotingEscrow",
        "label": "contracts_whitelist",
        "offset": 0,
        "slot": "11",
        "type": "t_mapping(t_address,t_bool)"
      }
    ],
    "types": {
      "t_address": {
        "encoding": "inplace",
        "label": "address",
        "numberOfBytes": "20"
      },
      "t_array(t_struct(Point)1394_storage)1000000000_storage": {
        "base": "t_struct(Point)1394_storage",
        "encoding": "inplace",
        "label": "struct Point[1000000000]",
        "numberOfBytes": "96000000000"
      },
      "t_bool": {
        "encoding": "inplace",
        "label": "bool",
        "numberOfBytes": "1"
      },
      "t_int128": {
        "encoding": "inplace",
        "label": "int128",
        "numberOfBytes": "16"
      },
      "t_mapping(t_address,t_array(t_struct(Point)1394_storage)1000000000_storage)": {
        "encoding": "mapping",
        "key": "t_address",
        "label": "mapping(address => struct Point[1000000000])",
        "numberOfBytes": "32",
        "value": "t_array(t_struct(Point)1394_storage)1000000000_storage"
      },
      "t_mapping(t_address,t_bool)": {
        "encoding": "mapping",
        "key": "t_address",
        "label": "mapping(address => bool)",
        "numberOfBytes": "32",
        "value": "t_bool"
      },
      "t_mapping(t_address,t_struct(LockedBalance)1399_storage)": {
        "encoding": "mapping",
        "key": "t_address",
        "label": "mapping(address => struct LockedBalance)",
        "numberOfBytes": "32",
        "value": "t_struct(LockedBalance)1399_storage"
      },
      "t_mapping(t_address,t_uint256)": {
        "encoding": "mapping",
        "key": "t_address",
        "label": "mapping(address => uint256)",
        "numberOfBytes": "32",
        "value": "t_uint256"
      },
      "t_mapping(t_uint256,t_int128)": {
        "encoding": "mapping",
        "key": "t_uint256",
        "label": "mapping(uint256 => int128)",
        "numberOfBytes": "32",
        "value": "t_int128"
      },
      "t_mapping(t_uint256,t_struct(Point)1394_storage)": {
        "encoding": "mapping",
        "key": "t_uint256",
        "label": "mapping(uint256 => struct Point)",
        "numberOfBytes": "32",
        "value": "t_struct(Point)1394_storage"
      },
      "t_struct(LockedBalance)1399_storage": {
        "encoding": "inplace",
        "label": "struct LockedBalance",
        "members": [
          {
            "astId": 1396,
            "contract": "contracts/VotingEscrow.sol:VotingEscrow",
            "label": "amount",
            "offset": 0,
            "slot": "0",
            "type": "t_int128"
          },
          {
            "astId": 1398,
            "contract": "contracts/VotingEscrow.sol:VotingEscrow",
            "label": "end",
            "offset": 0,
            "slot": "1",
            "type": "t_uint256"
          }
        ],
        "numberOfBytes": "64"
      },
      "t_struct(Point)1394_storage": {
        "encoding": "inplace",
        "label": "struct Point",
        "members": [
          {
            "astId": 1387,
            "contract": "contracts/VotingEscrow.sol:VotingEscrow",
            "label": "bias",
            "offset": 0,
            "slot": "0",
            "type": "t_int128"
          },
          {
            "astId": 1389,
            "contract": "contracts/VotingEscrow.sol:VotingEscrow",
            "label": "slope",
            "offset": 16,
            "slot": "0",
            "type": "t_int128"
          },
          {
            "astId": 1391,
            "contract": "contracts/VotingEscrow.sol:VotingEscrow",
            "label": "ts",
            "offset": 0,
            "slot": "1",
            "type": "t_uint256"
          },
          {
            "astId": 1393,
            "contract": "contracts/VotingEscrow.sol:VotingEscrow",
            "label": "blk",
            "offset": 0,
            "slot": "2",
            "type": "t_uint256"
          }
        ],
        "numberOfBytes": "96"
      },
      "t_uint256": {
        "encoding": "inplace",
        "label": "uint256",
        "numberOfBytes": "32"
      }
    }
  }
}