{
  "address": "0xAF667811A7eDcD5B0066CD4cA0da51637DB76D09",
  "abi": [
    {
      "inputs": [
        {
          "internalType": "contract IVotingEscrow",
          "name": "votingEscrow",
          "type": "address"
        },
        {
          "internalType": "uint256",
          "name": "startTime",
          "type": "uint256"
        }
      ],
      "stateMutability": "nonpayable",
      "type": "constructor"
    },
    {
      "anonymous": false,
      "inputs": [
        {
          "indexed": false,
          "internalType": "address",
          "name": "user",
          "type": "address"
        },
        {
          "indexed": false,
          "internalType": "bool",
          "name": "enabled",
          "type": "bool"
        }
      ],
      "name": "OnlyVeHolderClaimingEnabled",
      "type": "event"
    },
    {
      "anonymous": false,
      "inputs": [
        {
          "indexed": true,
          "internalType": "address",
          "name": "previousOwner",
          "type": "address"
        },
        {
          "indexed": true,
          "internalType": "address",
          "name": "newOwner",
          "type": "address"
        }
      ],
      "name": "OwnershipTransferred",
      "type": "event"
    },
    {
      "anonymous": false,
      "inputs": [
        {
          "indexed": false,
          "internalType": "contract IERC20",
          "name": "token",
          "type": "address"
        },
        {
          "indexed": false,
          "internalType": "uint256",
          "name": "amount",
          "type": "uint256"
        },
        {
          "indexed": false,
          "internalType": "uint256",
          "name": "lastCheckpointTimestamp",
          "type": "uint256"
        }
      ],
      "name": "TokenCheckpointed",
      "type": "event"
    },
    {
      "anonymous": false,
      "inputs": [
        {
          "indexed": false,
          "internalType": "contract IERC20",
          "name": "token",
          "type": "address"
        },
        {
          "indexed": false,
          "internalType": "bool",
          "name": "enabled",
          "type": "bool"
        }
      ],
      "name": "TokenClaimingEnabled",
      "type": "event"
    },
    {
      "anonymous": false,
      "inputs": [
        {
          "indexed": false,
          "internalType": "contract IERC20",
          "name": "token",
          "type": "address"
        },
        {
          "indexed": false,
          "internalType": "uint256",
          "name": "amount",
          "type": "uint256"
        },
        {
          "indexed": false,
          "internalType": "address",
          "name": "recipient",
          "type": "address"
        }
      ],
      "name": "TokenWithdrawn",
      "type": "event"
    },
    {
      "anonymous": false,
      "inputs": [
        {
          "indexed": false,
          "internalType": "address",
          "name": "user",
          "type": "address"
        },
        {
          "indexed": false,
          "internalType": "contract IERC20",
          "name": "token",
          "type": "address"
        },
        {
          "indexed": false,
          "internalType": "uint256",
          "name": "amount",
          "type": "uint256"
        },
        {
          "indexed": false,
          "internalType": "uint256",
          "name": "userTokenTimeCursor",
          "type": "uint256"
        }
      ],
      "name": "TokensClaimed",
      "type": "event"
    },
    {
      "inputs": [
        {
          "internalType": "contract IERC20",
          "name": "token",
          "type": "address"
        }
      ],
      "name": "canTokenBeClaimed",
      "outputs": [
        {
          "internalType": "bool",
          "name": "",
          "type": "bool"
        }
      ],
      "stateMutability": "view",
      "type": "function"
    },
    {
      "inputs": [],
      "name": "checkpoint",
      "outputs": [],
      "stateMutability": "nonpayable",
      "type": "function"
    },
    {
      "inputs": [
        {
          "internalType": "contract IERC20",
          "name": "token",
          "type": "address"
        }
      ],
      "name": "checkpointToken",
      "outputs": [],
      "stateMutability": "nonpayable",
      "type": "function"
    },
    {
      "inputs": [
        {
          "internalType": "contract IERC20[]",
          "name": "tokens",
          "type": "address[]"
        }
      ],
      "name": "checkpointTokens",
      "outputs": [],
      "stateMutability": "nonpayable",
      "type": "function"
    },
    {
      "inputs": [
        {
          "internalType": "address",
          "name": "user",
          "type": "address"
        }
      ],
      "name": "checkpointUser",
      "outputs": [],
      "stateMutability": "nonpayable",
      "type": "function"
    },
    {
      "inputs": [
        {
          "internalType": "address",
          "name": "user",
          "type": "address"
        },
        {
          "internalType": "contract IERC20",
          "name": "token",
          "type": "address"
        }
      ],
      "name": "claimToken",
      "outputs": [
        {
          "internalType": "uint256",
          "name": "",
          "type": "uint256"
        }
      ],
      "stateMutability": "nonpayable",
      "type": "function"
    },
    {
      "inputs": [
        {
          "internalType": "address",
          "name": "user",
          "type": "address"
        },
        {
          "internalType": "contract IERC20[]",
          "name": "tokens",
          "type": "address[]"
        }
      ],
      "name": "claimTokens",
      "outputs": [
        {
          "internalType": "uint256[]",
          "name": "",
          "type": "uint256[]"
        }
      ],
      "stateMutability": "nonpayable",
      "type": "function"
    },
    {
      "inputs": [
        {
          "internalType": "contract IERC20",
          "name": "token",
          "type": "address"
        },
        {
          "internalType": "uint256",
          "name": "amount",
          "type": "uint256"
        }
      ],
      "name": "depositToken",
      "outputs": [],
      "stateMutability": "nonpayable",
      "type": "function"
    },
    {
      "inputs": [
        {
          "internalType": "contract IERC20[]",
          "name": "tokens",
          "type": "address[]"
        },
        {
          "internalType": "uint256[]",
          "name": "amounts",
          "type": "uint256[]"
        }
      ],
      "name": "depositTokens",
      "outputs": [],
      "stateMutability": "nonpayable",
      "type": "function"
    },
    {
      "inputs": [
        {
          "internalType": "bool",
          "name": "enabled",
          "type": "bool"
        }
      ],
      "name": "enableOnlyVeHolderClaiming",
      "outputs": [],
      "stateMutability": "nonpayable",
      "type": "function"
    },
    {
      "inputs": [
        {
          "internalType": "contract IERC20",
          "name": "token",
          "type": "address"
        },
        {
          "internalType": "bool",
          "name": "enable",
          "type": "bool"
        }
      ],
      "name": "enableTokenClaiming",
      "outputs": [],
      "stateMutability": "nonpayable",
      "type": "function"
    },
    {
      "inputs": [],
      "name": "getStartTime",
      "outputs": [
        {
          "internalType": "uint256",
          "name": "",
          "type": "uint256"
        }
      ],
      "stateMutability": "view",
      "type": "function"
    },
    {
      "inputs": [],
      "name": "getTimeCursor",
      "outputs": [
        {
          "internalType": "uint256",
          "name": "",
          "type": "uint256"
        }
      ],
      "stateMutability": "view",
      "type": "function"
    },
    {
      "inputs": [
        {
          "internalType": "contract IERC20",
          "name": "token",
          "type": "address"
        }
      ],
      "name": "getTokenCachedBalance",
      "outputs": [
        {
          "internalType": "uint256",
          "name": "",
          "type": "uint256"
        }
      ],
      "stateMutability": "view",
      "type": "function"
    },
    {
      "inputs": [
        {
          "internalType": "contract IERC20",
          "name": "token",
          "type": "address"
        }
      ],
      "name": "getTokenLastBalance",
      "outputs": [
        {
          "internalType": "uint256",
          "name": "",
          "type": "uint256"
        }
      ],
      "stateMutability": "view",
      "type": "function"
    },
    {
      "inputs": [
        {
          "internalType": "contract IERC20",
          "name": "token",
          "type": "address"
        }
      ],
      "name": "getTokenStartTime",
      "outputs": [
        {
          "internalType": "uint256",
          "name": "",
          "type": "uint256"
        }
      ],
      "stateMutability": "view",
      "type": "function"
    },
    {
      "inputs": [
        {
          "internalType": "contract IERC20",
          "name": "token",
          "type": "address"
        }
      ],
      "name": "getTokenTimeCursor",
      "outputs": [
        {
          "internalType": "uint256",
          "name": "",
          "type": "uint256"
        }
      ],
      "stateMutability": "view",
      "type": "function"
    },
    {
      "inputs": [
        {
          "internalType": "contract IERC20",
          "name": "token",
          "type": "address"
        },
        {
          "internalType": "uint256",
          "name": "timestamp",
          "type": "uint256"
        }
      ],
      "name": "getTokensDistributedInWeek",
      "outputs": [
        {
          "internalType": "uint256",
          "name": "",
          "type": "uint256"
        }
      ],
      "stateMutability": "view",
      "type": "function"
    },
    {
      "inputs": [
        {
          "internalType": "uint256",
          "name": "timestamp",
          "type": "uint256"
        }
      ],
      "name": "getTotalSupplyAtTimestamp",
      "outputs": [
        {
          "internalType": "uint256",
          "name": "",
          "type": "uint256"
        }
      ],
      "stateMutability": "view",
      "type": "function"
    },
    {
      "inputs": [
        {
          "internalType": "address",
          "name": "user",
          "type": "address"
        },
        {
          "internalType": "uint256",
          "name": "timestamp",
          "type": "uint256"
        }
      ],
      "name": "getUserBalanceAtTimestamp",
      "outputs": [
        {
          "internalType": "uint256",
          "name": "",
          "type": "uint256"
        }
      ],
      "stateMutability": "view",
      "type": "function"
    },
    {
      "inputs": [
        {
          "internalType": "address",
          "name": "user",
          "type": "address"
        }
      ],
      "name": "getUserLastEpochCheckpointed",
      "outputs": [
        {
          "internalType": "uint256",
          "name": "",
          "type": "uint256"
        }
      ],
      "stateMutability": "view",
      "type": "function"
    },
    {
      "inputs": [
        {
          "internalType": "address",
          "name": "user",
          "type": "address"
        }
      ],
      "name": "getUserStartTime",
      "outputs": [
        {
          "internalType": "uint256",
          "name": "",
          "type": "uint256"
        }
      ],
      "stateMutability": "view",
      "type": "function"
    },
    {
      "inputs": [
        {
          "internalType": "address",
          "name": "user",
          "type": "address"
        }
      ],
      "name": "getUserTimeCursor",
      "outputs": [
        {
          "internalType": "uint256",
          "name": "",
          "type": "uint256"
        }
      ],
      "stateMutability": "view",
      "type": "function"
    },
    {
      "inputs": [
        {
          "internalType": "address",
          "name": "user",
          "type": "address"
        },
        {
          "internalType": "contract IERC20",
          "name": "token",
          "type": "address"
        }
      ],
      "name": "getUserTokenTimeCursor",
      "outputs": [
        {
          "internalType": "uint256",
          "name": "",
          "type": "uint256"
        }
      ],
      "stateMutability": "view",
      "type": "function"
    },
    {
      "inputs": [],
      "name": "getVotingEscrow",
      "outputs": [
        {
          "internalType": "contract IVotingEscrow",
          "name": "",
          "type": "address"
        }
      ],
      "stateMutability": "view",
      "type": "function"
    },
    {
      "inputs": [
        {
          "internalType": "address",
          "name": "user",
          "type": "address"
        }
      ],
      "name": "onlyVeHolderClaimingEnabled",
      "outputs": [
        {
          "internalType": "bool",
          "name": "",
          "type": "bool"
        }
      ],
      "stateMutability": "view",
      "type": "function"
    },
    {
      "inputs": [],
      "name": "owner",
      "outputs": [
        {
          "internalType": "address",
          "name": "",
          "type": "address"
        }
      ],
      "stateMutability": "view",
      "type": "function"
    },
    {
      "inputs": [],
      "name": "renounceOwnership",
      "outputs": [],
      "stateMutability": "nonpayable",
      "type": "function"
    },
    {
      "inputs": [
        {
          "internalType": "address",
          "name": "newOwner",
          "type": "address"
        }
      ],
      "name": "transferOwnership",
      "outputs": [],
      "stateMutability": "nonpayable",
      "type": "function"
    },
    {
      "inputs": [
        {
          "internalType": "contract IERC20",
          "name": "token",
          "type": "address"
        },
        {
          "internalType": "uint256",
          "name": "amount",
          "type": "uint256"
        },
        {
          "internalType": "address",
          "name": "recipient",
          "type": "address"
        }
      ],
      "name": "withdrawToken",
      "outputs": [],
      "stateMutability": "nonpayable",
      "type": "function"
    }
  ],
  "transactionHash": "0x0be53c70fa722c93c1b9cb8160f944062d81c24d6896c85192e03caba829ab53",
  "args": [
    "0x0e42acBD23FAee03249DAFF896b78d7e79fBD58E",
    1694044800
  ],
  "numDeployments": 1,
  "solcInputHash": "c304ad265ff3410194f738d9be1916ae",
  "bytecode": "0x60c06040523480156200001157600080fd5b5060405162002fc638038062002fc68339810160408190526200003491620001cb565b600062000040620001a6565b600080546001600160a01b0319166001600160a01b0383169081178255604051929350917f8be0079c531659141344cd1fd0a4f28419497f9722a3daafe3b4186f6b6457e0908290a350600180556001600160601b0319606083901b16608052620000ab81620001aa565b90506000620000ba42620001aa565b905080821015620000e85760405162461bcd60e51b8152600401620000df90620002ca565b60405180910390fd5b60405163d1febfb960e01b81526000906001600160a01b0385169063d1febfb9906200011990849060040162000275565b60806040518083038186803b1580156200013257600080fd5b505afa15801562000147573d6000803e3d6000fd5b505050506040513d601f19601f820116820180604052508101906200016d919062000205565b905080604001518311620001955760405162461bcd60e51b8152600401620000df906200027e565b505060a081905260025550620002ff565b3390565b62093a80808204025b919050565b8051600f81900b8114620001b357600080fd5b60008060408385031215620001de578182fd5b82516001600160a01b0381168114620001f5578283fd5b6020939093015192949293505050565b60006080828403121562000217578081fd5b604051608081016001600160401b03811182821017156200023457fe5b6040526200024283620001b8565b81526200025260208401620001b8565b602082015260408301516040820152606083015160608201528091505092915050565b90815260200190565b6020808252602c908201527f43616e6e6f74207374617274206265666f726520566f74696e67457363726f7760408201526b040ccd2e4e6e840cae0dec6d60a31b606082015260800190565b6020808252818101527f43616e6e6f74207374617274206265666f72652063757272656e74207765656b604082015260600190565b60805160601c60a051612c646200036260003980610ce452806112085280611355528061139752806116df525080610405528061112252806112c5528061149d5280611c345280611ccf528061200b528061221052806122f55250612c646000f3fe608060405234801561001057600080fd5b50600436106101da5760003560e01c806389d11a5911610104578063c8a0f2d5116100a2578063de2283ab11610071578063de2283ab146103b7578063de681faf146103ca578063f14045ac146103dd578063f2fde38b146103f0576101da565b8063c8a0f2d514610232578063ca31879d1461037e578063cc08736414610391578063d3dc4ca1146103a4576101da565b8063a3208f82116100de578063a3208f821461033b578063acbc14281461035b578063c2c4c5c11461036e578063c828371e14610376576101da565b806389d11a591461030d5780638da5cb5b14610320578063905d10ac14610328576101da565b80633ccdbb281161017c5780638050a7ee1161014b5780638050a7ee146102bf57806382aa5ad4146102d2578063876e69a1146102da57806388720467146102ed576101da565b80633ccdbb281461027e5780634f3c509014610291578063715018a6146102a45780637b8d6221146102ac576101da565b80632308805b116101b85780632308805b14610232578063286d5e7f14610245578063338b5dea146102585780633902b9bc1461026b576101da565b806308b0308a146101df5780630c59ef34146101fd57806314866e081461021d575b600080fd5b6101e7610403565b6040516101f49190612932565b60405180910390f35b61021061020b36600461268d565b610427565b6040516101f49190612b9a565b61023061022b36600461268d565b610450565b005b61021061024036600461268d565b6104bd565b61021061025336600461268d565b6104fe565b610230610266366004612734565b61053f565b61023061027936600461268d565b6105da565b61023061028c366004612856565b610654565b61021061029f366004612902565b61071c565b61023061072e565b6102306102ba36600461279f565b610804565b6102106102cd3660046126fc565b610972565b610210610987565b6102106102e836600461268d565b61098d565b6103006102fb3660046126a9565b6109be565b6040516101f491906129a3565b61021061031b36600461268d565b610b5b565b6101e7610b80565b61023061033636600461275f565b610b8f565b61034e61034936600461268d565b610c28565b6040516101f491906129db565b61021061036936600461268d565b610c46565b610230610c77565b610210610ce2565b61021061038c3660046126fc565b610d06565b61023061039f366004612808565b610ded565b6102106103b2366004612734565b610e61565b61034e6103c536600461268d565b610e89565b6102106103d8366004612734565b610ea7565b6102306103eb366004612822565b610ecf565b6102306103fe36600461268d565b610fc3565b7f000000000000000000000000000000000000000000000000000000000000000090565b6001600160a01b03811660009081526007602052604090205467ffffffffffffffff165b919050565b600260015414156104a8576040805162461bcd60e51b815260206004820152601f60248201527f5265656e7472616e637947756172643a207265656e7472616e742063616c6c00604482015290519081900360640190fd5b60026001556104b6816110ef565b5060018055565b6001600160a01b031660009081526004602052604090205470010000000000000000000000000000000090046fffffffffffffffffffffffffffffffff1690565b6001600160a01b031660009081526007602052604090205470010000000000000000000000000000000090046fffffffffffffffffffffffffffffffff1690565b60026001541415610597576040805162461bcd60e51b815260206004820152601f60248201527f5265656e7472616e637947756172643a207265656e7472616e742063616c6c00604482015290519081900360640190fd5b6002600155816105a68161166c565b6105b18360006116a4565b6105c66001600160a01b038416333085611a74565b6105d18360016116a4565b50506001805550565b60026001541415610632576040805162461bcd60e51b815260206004820152601f60248201527f5265656e7472616e637947756172643a207265656e7472616e742063616c6c00604482015290519081900360640190fd5b6002600155806106418161166c565b61064c8260016116a4565b505060018055565b61065c611b02565b6001600160a01b031661066d610b80565b6001600160a01b0316146106c8576040805162461bcd60e51b815260206004820181905260248201527f4f776e61626c653a2063616c6c6572206973206e6f7420746865206f776e6572604482015290519081900360640190fd5b6106dc6001600160a01b0384168284611b06565b7fa0524ee0fd8662d6c046d199da2a6d3dc49445182cec055873a5bb9c2843c8e083838360405161070f939291906129e6565b60405180910390a1505050565b60009081526003602052604090205490565b610736611b02565b6001600160a01b0316610747610b80565b6001600160a01b0316146107a2576040805162461bcd60e51b815260206004820181905260248201527f4f776e61626c653a2063616c6c6572206973206e6f7420746865206f776e6572604482015290519081900360640190fd5b600080546040516001600160a01b03909116907f8be0079c531659141344cd1fd0a4f28419497f9722a3daafe3b4186f6b6457e0908390a3600080547fffffffffffffffffffffffff0000000000000000000000000000000000000000169055565b6002600154141561085c576040805162461bcd60e51b815260206004820152601f60248201527f5265656e7472616e637947756172643a207265656e7472616e742063616c6c00604482015290519081900360640190fd5b60026001558281146108895760405162461bcd60e51b815260040161088090612b63565b60405180910390fd5b8260005b81811015610966576108be8686838181106108a457fe5b90506020020160208101906108b9919061268d565b61166c565b6108e98686838181106108cd57fe5b90506020020160208101906108e2919061268d565b60006116a4565b61093333308686858181106108fa57fe5b9050602002013589898681811061090d57fe5b9050602002016020810190610922919061268d565b6001600160a01b0316929190611a74565b61095e86868381811061094257fe5b9050602002016020810190610957919061268d565b60016116a4565b60010161088d565b50506001805550505050565b600061097e8383611b8b565b90505b92915050565b60025490565b6001600160a01b031660009081526007602052604090205468010000000000000000900467ffffffffffffffff1690565b606060026001541415610a18576040805162461bcd60e51b815260206004820152601f60248201527f5265656e7472616e637947756172643a207265656e7472616e742063616c6c00604482015290519081900360640190fd5b60026001556001600160a01b0384166000908152600a6020526040902054849060ff1615610a6857336001600160a01b03821614610a685760405162461bcd60e51b815260040161088090612af5565b83838060005b81811015610a8d57610a858484838181106108a457fe5b600101610a6e565b50610a96611c09565b610a9f886110ef565b8560008167ffffffffffffffff81118015610ab957600080fd5b50604051908082528060200260200182016040528015610ae3578160200160208202803683370190505b50905060005b82811015610b4957610b008a8a838181106108cd57fe5b610b2a8b8b8b84818110610b1057fe5b9050602002016020810190610b25919061268d565b611dd8565b828281518110610b3657fe5b6020908102919091010152600101610ae9565b50600180559998505050505050505050565b6001600160a01b031660009081526004602052604090205467ffffffffffffffff1690565b6000546001600160a01b031690565b60026001541415610be7576040805162461bcd60e51b815260206004820152601f60248201527f5265656e7472616e637947756172643a207265656e7472616e742063616c6c00604482015290519081900360640190fd5b60026001558060005b81811015610c1e57610c078484838181106108a457fe5b610c1684848381811061094257fe5b600101610bf0565b5050600180555050565b6001600160a01b03166000908152600a602052604090205460ff1690565b6001600160a01b031660009081526004602052604090205468010000000000000000900467ffffffffffffffff1690565b60026001541415610ccf576040805162461bcd60e51b815260206004820152601f60248201527f5265656e7472616e637947756172643a207265656e7472616e742063616c6c00604482015290519081900360640190fd5b6002600155610cdc611c09565b60018055565b7f000000000000000000000000000000000000000000000000000000000000000090565b600060026001541415610d60576040805162461bcd60e51b815260206004820152601f60248201527f5265656e7472616e637947756172643a207265656e7472616e742063616c6c00604482015290519081900360640190fd5b60026001556001600160a01b0383166000908152600a6020526040902054839060ff1615610db057336001600160a01b03821614610db05760405162461bcd60e51b815260040161088090612af5565b82610dba8161166c565b610dc2611c09565b610dcb856110ef565b610dd68460006116a4565b610de08585611dd8565b6001805595945050505050565b336000818152600a60205260409081902080547fffffffffffffffffffffffffffffffffffffffffffffffffffffffffffffff0016841515179055517f5df4db5082ff794d02e809cecb2c56f2ac683e734a0b4d1e03fd82b3da056c7191610e56918490612946565b60405180910390a150565b6001600160a01b03919091166000908152600560209081526040808320938352929052205490565b6001600160a01b031660009081526006602052604090205460ff1690565b6001600160a01b03919091166000908152600860209081526040808320938352929052205490565b610ed7611b02565b6001600160a01b0316610ee8610b80565b6001600160a01b031614610f43576040805162461bcd60e51b815260206004820181905260248201527f4f776e61626c653a2063616c6c6572206973206e6f7420746865206f776e6572604482015290519081900360640190fd5b6001600160a01b0382166000908152600660205260409081902080547fffffffffffffffffffffffffffffffffffffffffffffffffffffffffffffff0016831515179055517f359cee3647456cdac70428f1f028ea08d4bafdc5703fc14df9625b49f4398c9d90610fb79084908490612946565b60405180910390a15050565b610fcb611b02565b6001600160a01b0316610fdc610b80565b6001600160a01b031614611037576040805162461bcd60e51b815260206004820181905260248201527f4f776e61626c653a2063616c6c6572206973206e6f7420746865206f776e6572604482015290519081900360640190fd5b6001600160a01b03811661107c5760405162461bcd60e51b8152600401808060200182810382526026815260200180612bb96026913960400191505060405180910390fd5b600080546040516001600160a01b03808516939216917f8be0079c531659141344cd1fd0a4f28419497f9722a3daafe3b4186f6b6457e091a3600080547fffffffffffffffffffffffff0000000000000000000000000000000000000000166001600160a01b0392909216919091179055565b6040517f010ae7570000000000000000000000000000000000000000000000000000000081526000906001600160a01b037f0000000000000000000000000000000000000000000000000000000000000000169063010ae75790611157908590600401612932565b60206040518083038186803b15801561116f57600080fd5b505afa158015611183573d6000803e3d6000fd5b505050506040513d601f19601f820116820180604052508101906111a7919061291a565b9050600081116111c95760405162461bcd60e51b815260040161088090612b2c565b6001600160a01b0382166000908152600760205260408120805490916801000000000000000090910467ffffffffffffffff1690816112365761122f857f0000000000000000000000000000000000000000000000000000000000000000600087611fb4565b9050611289565b4282106112465750505050611669565b50815470010000000000000000000000000000000090046fffffffffffffffffffffffffffffffff16601481850311156112895761128685838387611fb4565b90505b80611292575060015b6040517f28d09d470000000000000000000000000000000000000000000000000000000081526000906001600160a01b037f000000000000000000000000000000000000000000000000000000000000000016906328d09d47906112fc908990869060040161298a565b60806040518083038186803b15801561131457600080fd5b505afa158015611328573d6000803e3d6000fd5b505050506040513d601f19601f8201168201806040525081019061134c9190612897565b9050826113fd577f000000000000000000000000000000000000000000000000000000000000000042116113925760405162461bcd60e51b815260040161088090612a98565b6113c87f00000000000000000000000000000000000000000000000000000000000000006113c383604001516120c4565b6120d4565b84547fffffffffffffffffffffffffffffffffffffffffffffffff00000000000000001667ffffffffffffffff821617855592505b6114056125f4565b60005b60328110156115d057826040015185101580156114255750868411155b1561152c576001840193508291508684111561146d5760405180608001604052806000600f0b81526020016000600f0b81526020016000815260200160008152509250611527565b6040517f28d09d470000000000000000000000000000000000000000000000000000000081526001600160a01b037f000000000000000000000000000000000000000000000000000000000000000016906328d09d47906114d4908b90889060040161298a565b60806040518083038186803b1580156114ec57600080fd5b505afa158015611500573d6000803e3d6000fd5b505050506040513d601f19601f820116820180604052508101906115249190612897565b92505b6115c8565b428510611538576115d0565b6000826040015186039050600081846020015102600f0b8460000151600f0b13611563576000611574565b81846020015102846000015103600f0b5b90508015801561158357508886115b1561159a57611591426120c4565b965050506115d0565b6001600160a01b038a1660009081526008602090815260408083208a84529091529020555062093a80909401935b600101611408565b505083546fffffffffffffffffffffffffffffffff167fffffffffffffffffffffffffffffffffffffffffffffffffffffffffffffffff9290920167ffffffffffffffff90811670010000000000000000000000000000000002929092177fffffffffffffffffffffffffffffffff0000000000000000ffffffffffffffff166801000000000000000093909216929092021790915550505b50565b6001600160a01b03811660009081526006602052604090205460ff166116695760405162461bcd60e51b815260040161088090612a2a565b6001600160a01b0382166000908152600460205260408120805490916801000000000000000090910467ffffffffffffffff169081611761577f0000000000000000000000000000000000000000000000000000000000000000421161171c5760405162461bcd60e51b815260040161088090612a98565b429150611728426120eb565b83547fffffffffffffffffffffffffffffffffffffffffffffffff00000000000000001667ffffffffffffffff919091161783556117b3565b8142039050836117b3576000611776836120eb565b61177f426120eb565b14905060006201518042611792426120c4565b031090508180156117a1575080155b156117b0575050505050611a70565b50505b82547fffffffffffffffffffffffffffffffff0000000000000000ffffffffffffffff16680100000000000000004267ffffffffffffffff16021783556040517f70a082310000000000000000000000000000000000000000000000000000000081526000906001600160a01b038716906370a0823190611838903090600401612932565b60206040518083038186803b15801561185057600080fd5b505afa158015611864573d6000803e3d6000fd5b505050506040513d601f19601f82011682018060405250810190611888919061291a565b84549091506000906118c190839070010000000000000000000000000000000090046fffffffffffffffffffffffffffffffff166120f7565b9050806118d2575050505050611a70565b6fffffffffffffffffffffffffffffffff8211156119025760405162461bcd60e51b815260040161088090612a61565b84546fffffffffffffffffffffffffffffffff808416700100000000000000000000000000000000029116178555600061193b856120eb565b6001600160a01b038916600090815260056020526040812091925090815b6014811015611a2b578362093a80019250824210156119c9578615801561197f57508742145b1561199d5760008481526020839052604090208054860190556119c4565b868842038602816119aa57fe5b600086815260208590526040902080549290910490910190555b611a2b565b861580156119d657508783145b156119f4576000848152602083905260409020805486019055611a1b565b86888403860281611a0157fe5b600086815260208590526040902080549290910490910190555b9196508692508291600101611959565b507f9b7f1a85a4c9b4e59e1b6527d9969c50cdfb3a1a467d0c4a51fb0ed8bf07f1308a8589604051611a5f93929190612a09565b60405180910390a150505050505050505b5050565b604080516001600160a01b0380861660248301528416604482015260648082018490528251808303909101815260849091019091526020810180517bffffffffffffffffffffffffffffffffffffffffffffffffffffffff167f23b872dd00000000000000000000000000000000000000000000000000000000179052611afc908590612154565b50505050565b3390565b604080516001600160a01b038416602482015260448082018490528251808303909101815260649091019091526020810180517bffffffffffffffffffffffffffffffffffffffffffffffffffffffff167fa9059cbb00000000000000000000000000000000000000000000000000000000179052611b86908490612154565b505050565b6001600160a01b0380831660009081526009602090815260408083209385168352929052908120548015611bc0579050610981565b6001600160a01b0380851660009081526007602090815260408083205493871683526004909152902054611c019167ffffffffffffffff90811691166120d4565b949350505050565b6002546000611c17426120eb565b905080821180611c2657504281145b15611c32575050611dd6565b7f00000000000000000000000000000000000000000000000000000000000000006001600160a01b031663c2c4c5c16040518163ffffffff1660e01b8152600401600060405180830381600087803b158015611c8d57600080fd5b505af1158015611ca1573d6000803e3d6000fd5b5050505060005b6014811015611dd05781831115611cbe57611dd0565b6000611cc984612205565b905060007f00000000000000000000000000000000000000000000000000000000000000006001600160a01b031663d1febfb9836040518263ffffffff1660e01b8152600401611d199190612b9a565b60806040518083038186803b158015611d3157600080fd5b505afa158015611d45573d6000803e3d6000fd5b505050506040513d601f19601f82011682018060405250810190611d699190612897565b9050600081604001518611611d7f576000611d87565b816040015186035b60208301518351919250820290036000600f82900b13611da8576000611dad565b80600f0b5b600088815260036020526040902055505062093a80909401935050600101611ca8565b50506002555b565b6001600160a01b038116600090815260046020526040812081611dfb8585611b8b565b6002546001600160a01b03871660009081526007602052604081205492935091611e6e91611e4891611e43919068010000000000000000900467ffffffffffffffff166123a9565b6120c4565b8454611e699068010000000000000000900467ffffffffffffffff166120eb565b6123a9565b6001600160a01b038087166000908152600560209081526040808320938b16835260089091528120929350909190805b6014811015611ef257848610611eb357611ef2565b60008681526003602090815260408083205486835281842054928890529220540281611edb57fe5b62093a809790970196049190910190600101611e9e565b506001600160a01b03808a166000908152600960209081526040808320938c168352929052208590558015611fa85785546fffffffffffffffffffffffffffffffff70010000000000000000000000000000000080830482168490038216029116178655611f6a6001600160a01b0389168a83611b06565b7fff097c7d8b1957a4ff09ef1361b5fb54dcede3941ba836d0beb9d10bec725de689898388604051611f9f9493929190612961565b60405180910390a15b98975050505050505050565b60008282825b60808110156120b857818310611fcf576120b8565b6040517f28d09d470000000000000000000000000000000000000000000000000000000081526002838501810104906000906001600160a01b037f000000000000000000000000000000000000000000000000000000000000000016906328d09d4790612042908d90869060040161298a565b60806040518083038186803b15801561205a57600080fd5b505afa15801561206e573d6000803e3d6000fd5b505050506040513d601f19601f820116820180604052508101906120929190612897565b9050888160400151116120a7578194506120ae565b6001820393505b5050600101611fba565b50909695505050505050565b600061098162093a7f83016120eb565b6000818310156120e4578161097e565b5090919050565b62093a80908190040290565b60008282111561214e576040805162461bcd60e51b815260206004820152601e60248201527f536166654d6174683a207375627472616374696f6e206f766572666c6f770000604482015290519081900360640190fd5b50900390565b60006121a9826040518060400160405280602081526020017f5361666545524332303a206c6f772d6c6576656c2063616c6c206661696c6564815250856001600160a01b03166123b89092919063ffffffff16565b805190915015611b86578080602001905160208110156121c857600080fd5b5051611b865760405162461bcd60e51b815260040180806020018281038252602a815260200180612c05602a913960400191505060405180910390fd5b6000806000905060007f00000000000000000000000000000000000000000000000000000000000000006001600160a01b031663900cf0cf6040518163ffffffff1660e01b815260040160206040518083038186803b15801561226757600080fd5b505afa15801561227b573d6000803e3d6000fd5b505050506040513d601f19601f8201168201806040525081019061229f919061291a565b905060005b60808110156123a0578183106122b9576123a0565b6040517fd1febfb90000000000000000000000000000000000000000000000000000000081526002838501810104906000906001600160a01b037f0000000000000000000000000000000000000000000000000000000000000000169063d1febfb99061232a908590600401612b9a565b60806040518083038186803b15801561234257600080fd5b505afa158015612356573d6000803e3d6000fd5b505050506040513d601f19601f8201168201806040525081019061237a9190612897565b90508681604001511161238f57819450612396565b6001820393505b50506001016122a4565b50909392505050565b60008183106120e4578161097e565b60606123c784846000856123d1565b90505b9392505050565b6060824710156124125760405162461bcd60e51b8152600401808060200182810382526026815260200180612bdf6026913960400191505060405180910390fd5b61241b8561254a565b61246c576040805162461bcd60e51b815260206004820152601d60248201527f416464726573733a2063616c6c20746f206e6f6e2d636f6e7472616374000000604482015290519081900360640190fd5b600080866001600160a01b031685876040518082805190602001908083835b602083106124c857805182527fffffffffffffffffffffffffffffffffffffffffffffffffffffffffffffffe0909201916020918201910161248b565b6001836020036101000a03801982511681845116808217855250505050505090500191505060006040518083038185875af1925050503d806000811461252a576040519150601f19603f3d011682016040523d82523d6000602084013e61252f565b606091505b509150915061253f828286612550565b979650505050505050565b3b151590565b6060831561255f5750816123ca565b82511561256f5782518084602001fd5b8160405162461bcd60e51b81526004018080602001828103825283818151815260200191508051906020019080838360005b838110156125b95781810151838201526020016125a1565b50505050905090810190601f1680156125e65780820380516001836020036101000a031916815260200191505b509250505060405180910390fd5b60405180608001604052806000600f0b81526020016000600f0b815260200160008152602001600081525090565b60008083601f840112612633578182fd5b50813567ffffffffffffffff81111561264a578182fd5b602083019150836020808302850101111561266457600080fd5b9250929050565b8035801515811461044b57600080fd5b8051600f81900b811461044b57600080fd5b60006020828403121561269e578081fd5b81356123ca81612ba3565b6000806000604084860312156126bd578182fd5b83356126c881612ba3565b9250602084013567ffffffffffffffff8111156126e3578283fd5b6126ef86828701612622565b9497909650939450505050565b6000806040838503121561270e578182fd5b823561271981612ba3565b9150602083013561272981612ba3565b809150509250929050565b60008060408385031215612746578182fd5b823561275181612ba3565b946020939093013593505050565b60008060208385031215612771578182fd5b823567ffffffffffffffff811115612787578283fd5b61279385828601612622565b90969095509350505050565b600080600080604085870312156127b4578081fd5b843567ffffffffffffffff808211156127cb578283fd5b6127d788838901612622565b909650945060208701359150808211156127ef578283fd5b506127fc87828801612622565b95989497509550505050565b600060208284031215612819578081fd5b61097e8261266b565b60008060408385031215612834578182fd5b823561283f81612ba3565b915061284d6020840161266b565b90509250929050565b60008060006060848603121561286a578283fd5b833561287581612ba3565b925060208401359150604084013561288c81612ba3565b809150509250925092565b6000608082840312156128a8578081fd5b6040516080810181811067ffffffffffffffff821117156128c557fe5b6040526128d18361267b565b81526128df6020840161267b565b602082015260408301516040820152606083015160608201528091505092915050565b600060208284031215612913578081fd5b5035919050565b60006020828403121561292b578081fd5b5051919050565b6001600160a01b0391909116815260200190565b6001600160a01b039290921682521515602082015260400190565b6001600160a01b0394851681529290931660208301526040820152606081019190915260800190565b6001600160a01b03929092168252602082015260400190565b6020808252825182820181905260009190848201906040850190845b818110156120b8578351835292840192918401916001016129bf565b901515815260200190565b6001600160a01b0393841681526020810192909252909116604082015260600190565b6001600160a01b039390931683526020830191909152604082015260600190565b60208082526014908201527f546f6b656e206973206e6f7420616c6c6f776564000000000000000000000000604082015260600190565b6020808252601e908201527f4d6178696d756d20746f6b656e2062616c616e63652065786365656465640000604082015260600190565b60208082526024908201527f46656520646973747269627574696f6e20686173206e6f74207374617274656460408201527f2079657400000000000000000000000000000000000000000000000000000000606082015260800190565b60208082526017908201527f436c61696d696e67206973206e6f7420616c6c6f776564000000000000000000604082015260600190565b60208082526015908201527f76655354472062616c616e6365206973207a65726f0000000000000000000000604082015260600190565b60208082526015908201527f496e707574206c656e677468206d69736d617463680000000000000000000000604082015260600190565b90815260200190565b6001600160a01b038116811461166957600080fdfe4f776e61626c653a206e6577206f776e657220697320746865207a65726f2061646472657373416464726573733a20696e73756666696369656e742062616c616e636520666f722063616c6c5361666545524332303a204552433230206f7065726174696f6e20646964206e6f742073756363656564a2646970667358221220ed016ceb092c9550649e4c44527b0d19d8e48c83a3744d0b7901b08f3419abb364736f6c63430007060033",
  "devdoc": {
    "author": "Balancer Labs. Original version https://github.com/balancer/balancer-v2-monorepo/blob/master/pkg/liquidity-mining/contracts/fee-distribution/FeeDistributor.sol",
    "details": "Supports distributing arbitrarily many different tokens. In order to start distributing a new token to veSTG holders call `depositToken`.",
    "kind": "dev",
    "methods": {
      "canTokenBeClaimed(address)": {
        "params": {
          "token": "- The ERC20 token address to query."
        }
      },
      "checkpointToken(address)": {
        "details": "Any `token` balance held by the FeeDistributor above that which is returned by `getTokenLastBalance` will be distributed evenly across the time period since `token` was last checkpointed. This function will be called automatically before claiming tokens to ensure the contract is properly updated.",
        "params": {
          "token": "- The ERC20 token address to be checkpointed."
        }
      },
      "checkpointTokens(address[])": {
        "details": "A version of `checkpointToken` which supports checkpointing multiple tokens. See `checkpointToken` for more details.",
        "params": {
          "tokens": "- An array of ERC20 token addresses to be checkpointed."
        }
      },
      "checkpointUser(address)": {
        "params": {
          "user": "- The address of the user to be checkpointed."
        }
      },
      "claimToken(address,address)": {
        "details": "It's not necessary to explicitly checkpoint before calling this function, it will ensure the FeeDistributor is up to date before calculating the amount of tokens to be claimed.",
        "params": {
          "token": "- The ERC20 token address to be claimed.",
          "user": "- The user on behalf of which to claim."
        },
        "returns": {
          "_0": "The amount of `token` sent to `user` as a result of claiming."
        }
      },
      "claimTokens(address,address[])": {
        "details": "A version of `claimToken` which supports claiming multiple `tokens` on behalf of `user`. See `claimToken` for more details.",
        "params": {
          "tokens": "- An array of ERC20 token addresses to be claimed.",
          "user": "- The user on behalf of which to claim."
        },
        "returns": {
          "_0": "An array of the amounts of each token in `tokens` sent to `user` as a result of claiming."
        }
      },
      "depositToken(address,uint256)": {
        "details": "Sending tokens directly to the FeeDistributor instead of using `depositToken` may result in tokens being retroactively distributed to past weeks, or for the distribution to carry over to future weeks. If for some reason `depositToken` cannot be called, in order to ensure that all tokens are correctly distributed manually call `checkpointToken` before and after the token transfer.",
        "params": {
          "amount": "- The amount of tokens to deposit.",
          "token": "- The ERC20 token address to distribute."
        }
      },
      "depositTokens(address[],uint256[])": {
        "details": "A version of `depositToken` which supports depositing multiple `tokens` at once. See `depositToken` for more details.",
        "params": {
          "amounts": "- An array of token amounts to deposit.",
          "tokens": "- An array of ERC20 token addresses to distribute."
        }
      },
      "enableOnlyVeHolderClaiming(bool)": {
        "params": {
          "enabled": "- True if only the VotingEscrow holder can claim their rewards, false otherwise."
        }
      },
      "enableTokenClaiming(address,bool)": {
        "params": {
          "enable": "- True if the token can be claimed, false otherwise.",
          "token": "- The token to enable or disable claiming."
        }
      },
      "getTokenCachedBalance(address)": {
        "params": {
          "token": "- The ERC20 token address to query."
        }
      },
      "getTokenStartTime(address)": {
        "params": {
          "token": "- The ERC20 token address to query."
        }
      },
      "getTokenTimeCursor(address)": {
        "params": {
          "token": "- The ERC20 token address to query."
        }
      },
      "getTokensDistributedInWeek(address,uint256)": {
        "params": {
          "timestamp": "- The timestamp corresponding to the beginning of the week of interest.",
          "token": "- The ERC20 token address to query."
        }
      },
      "getTotalSupplyAtTimestamp(uint256)": {
        "details": "Only timestamps which fall on Thursdays 00:00:00 UTC will return correct values. This function requires the contract to have been checkpointed past `timestamp` so that the supply is cached.",
        "params": {
          "timestamp": "- The timestamp at which to read the cached total supply at."
        }
      },
      "getUserBalanceAtTimestamp(address,uint256)": {
        "details": "Only timestamps which fall on Thursdays 00:00:00 UTC will return correct values. This function requires `user` to have been checkpointed past `timestamp` so that their balance is cached.",
        "params": {
          "timestamp": "- The timestamp at which to read the `user`'s cached balance at.",
          "user": "- The address of the user of which to read the cached balance of."
        }
      },
      "getUserLastEpochCheckpointed(address)": {
        "params": {
          "user": "- The address of the user to query."
        }
      },
      "getUserStartTime(address)": {
        "params": {
          "user": "- The address of the user to query."
        }
      },
      "getUserTimeCursor(address)": {
        "params": {
          "user": "- The address of the user to query."
        }
      },
      "getUserTokenTimeCursor(address,address)": {
        "params": {
          "token": "- The ERC20 token address to query.",
          "user": "- The address of the user to query."
        }
      },
      "owner()": {
        "details": "Returns the address of the current owner."
      },
      "renounceOwnership()": {
        "details": "Leaves the contract without owner. It will not be possible to call `onlyOwner` functions anymore. Can only be called by the current owner. NOTE: Renouncing ownership will leave the contract without an owner, thereby removing any functionality that is only available to the owner."
      },
      "transferOwnership(address)": {
        "details": "Transfers ownership of the contract to a new account (`newOwner`). Can only be called by the current owner."
      },
      "withdrawToken(address,uint256,address)": {
        "params": {
          "amount": "- The amount to withdraw.",
          "recipient": "- The address to transfer the tokens to.",
          "token": "- The token to withdraw."
        }
      }
    },
    "title": "Fee Distributor",
    "version": 1
  },
  "userdoc": {
    "kind": "user",
    "methods": {
      "canTokenBeClaimed(address)": {
        "notice": "True if the given token can be claimed, false otherwise."
      },
      "checkpoint()": {
        "notice": "Caches the total supply of veSTG at the beginning of each week. This function will be called automatically before claiming tokens to ensure the contract is properly updated."
      },
      "checkpointToken(address)": {
        "notice": "Assigns any newly-received tokens held by the FeeDistributor to weekly distributions."
      },
      "checkpointTokens(address[])": {
        "notice": "Assigns any newly-received tokens held by the FeeDistributor to weekly distributions."
      },
      "checkpointUser(address)": {
        "notice": "Caches the user's balance of veSTG at the beginning of each week. This function will be called automatically before claiming tokens to ensure the contract is properly updated."
      },
      "claimToken(address,address)": {
        "notice": "Claims all pending distributions of the provided token for a user."
      },
      "claimTokens(address,address[])": {
        "notice": "Claims a number of tokens on behalf of a user."
      },
      "depositToken(address,uint256)": {
        "notice": "Deposits tokens to be distributed in the current week."
      },
      "depositTokens(address[],uint256[])": {
        "notice": "Deposits tokens to be distributed in the current week."
      },
      "enableOnlyVeHolderClaiming(bool)": {
        "notice": "Enables / disables rewards claiming only by the VotingEscrow holder for the message sender."
      },
      "enableTokenClaiming(address,bool)": {
        "notice": "Enables or disables claiming of the given token. Can be called only by Stargate DAO."
      },
      "getStartTime()": {
        "notice": "Returns the time when fee distribution starts."
      },
      "getTimeCursor()": {
        "notice": "Returns the global time cursor representing the most earliest uncheckpointed week."
      },
      "getTokenCachedBalance(address)": {
        "notice": "Returns the token-level cached balance."
      },
      "getTokenLastBalance(address)": {
        "notice": "Returns the FeeDistributor's cached balance of `token`."
      },
      "getTokenStartTime(address)": {
        "notice": "Returns the token-level start time representing the timestamp users could start claiming this token"
      },
      "getTokenTimeCursor(address)": {
        "notice": "Returns the token-level time cursor storing the timestamp at up to which tokens have been distributed."
      },
      "getTokensDistributedInWeek(address,uint256)": {
        "notice": "Returns the amount of `token` which the FeeDistributor received in the week beginning at `timestamp`."
      },
      "getTotalSupplyAtTimestamp(uint256)": {
        "notice": "Returns the cached total supply of veSTG as of the provided timestamp."
      },
      "getUserBalanceAtTimestamp(address,uint256)": {
        "notice": "Returns the user's cached balance of veSTG as of the provided timestamp."
      },
      "getUserLastEpochCheckpointed(address)": {
        "notice": "Returns the user-level last checkpointed epoch."
      },
      "getUserStartTime(address)": {
        "notice": "Returns the user-level start time representing the first week they're eligible to claim tokens."
      },
      "getUserTimeCursor(address)": {
        "notice": "Returns the user-level time cursor representing the most earliest uncheckpointed week."
      },
      "getUserTokenTimeCursor(address,address)": {
        "notice": "Returns the user-level time cursor storing the timestamp of the latest token distribution claimed."
      },
      "getVotingEscrow()": {
        "notice": "Returns the VotingEscrow (veSTG) token contract"
      },
      "onlyVeHolderClaimingEnabled(address)": {
        "notice": "Returns true if only the VotingEscrow holder can claim their rewards, false otherwise."
      },
      "withdrawToken(address,uint256,address)": {
        "notice": "Withdraws the specified `amount` of the `token` from the contract to the `recipient`. Can be called only by Stargate DAO."
      }
    },
    "notice": "Distributes any tokens transferred to the contract (e.g. Protocol fees) among veSTG holders proportionally based on a snapshot of the week at which the tokens are sent to the FeeDistributor contract.",
    "version": 1
  },
  "storageLayout": {
    "storage": [
      {
        "astId": 7,
        "contract": "contracts/FeeDistributor.sol:FeeDistributor",
        "label": "_owner",
        "offset": 0,
        "slot": "0",
        "type": "t_address"
      },
      {
        "astId": 1158,
        "contract": "contracts/FeeDistributor.sol:FeeDistributor",
        "label": "_status",
        "offset": 0,
        "slot": "1",
        "type": "t_uint256"
      },
      {
        "astId": 1222,
        "contract": "contracts/FeeDistributor.sol:FeeDistributor",
        "label": "_timeCursor",
        "offset": 0,
        "slot": "2",
        "type": "t_uint256"
      },
      {
        "astId": 1226,
        "contract": "contracts/FeeDistributor.sol:FeeDistributor",
        "label": "_veSupplyCache",
        "offset": 0,
        "slot": "3",
        "type": "t_mapping(t_uint256,t_uint256)"
      },
      {
        "astId": 1237,
        "contract": "contracts/FeeDistributor.sol:FeeDistributor",
        "label": "_tokenState",
        "offset": 0,
        "slot": "4",
        "type": "t_mapping(t_contract(IERC20)615,t_struct(TokenState)1233_storage)"
      },
      {
        "astId": 1243,
        "contract": "contracts/FeeDistributor.sol:FeeDistributor",
        "label": "_tokensPerWeek",
        "offset": 0,
        "slot": "5",
        "type": "t_mapping(t_contract(IERC20)615,t_mapping(t_uint256,t_uint256))"
      },
      {
        "astId": 1247,
        "contract": "contracts/FeeDistributor.sol:FeeDistributor",
        "label": "_tokenClaimingEnabled",
        "offset": 0,
        "slot": "6",
        "type": "t_mapping(t_contract(IERC20)615,t_bool)"
      },
      {
        "astId": 1258,
        "contract": "contracts/FeeDistributor.sol:FeeDistributor",
        "label": "_userState",
        "offset": 0,
        "slot": "7",
        "type": "t_mapping(t_address,t_struct(UserState)1254_storage)"
      },
      {
        "astId": 1264,
        "contract": "contracts/FeeDistributor.sol:FeeDistributor",
        "label": "_userBalanceAtTimestamp",
        "offset": 0,
        "slot": "8",
        "type": "t_mapping(t_address,t_mapping(t_uint256,t_uint256))"
      },
      {
        "astId": 1270,
        "contract": "contracts/FeeDistributor.sol:FeeDistributor",
        "label": "_userTokenTimeCursor",
        "offset": 0,
        "slot": "9",
        "type": "t_mapping(t_address,t_mapping(t_contract(IERC20)615,t_uint256))"
      },
      {
        "astId": 1274,
        "contract": "contracts/FeeDistributor.sol:FeeDistributor",
        "label": "_onlyVeHolderClaimingEnabled",
        "offset": 0,
        "slot": "10",
        "type": "t_mapping(t_address,t_bool)"
      }
    ],
    "types": {
      "t_address": {
        "encoding": "inplace",
        "label": "address",
        "numberOfBytes": "20"
      },
      "t_bool": {
        "encoding": "inplace",
        "label": "bool",
        "numberOfBytes": "1"
      },
      "t_contract(IERC20)615": {
        "encoding": "inplace",
        "label": "contract IERC20",
        "numberOfBytes": "20"
      },
      "t_mapping(t_address,t_bool)": {
        "encoding": "mapping",
        "key": "t_address",
        "label": "mapping(address => bool)",
        "numberOfBytes": "32",
        "value": "t_bool"
      },
      "t_mapping(t_address,t_mapping(t_contract(IERC20)615,t_uint256))": {
        "encoding": "mapping",
        "key": "t_address",
        "label": "mapping(address => mapping(contract IERC20 => uint256))",
        "numberOfBytes": "32",
        "value": "t_mapping(t_contract(IERC20)615,t_uint256)"
      },
      "t_mapping(t_address,t_mapping(t_uint256,t_uint256))": {
        "encoding": "mapping",
        "key": "t_address",
        "label": "mapping(address => mapping(uint256 => uint256))",
        "numberOfBytes": "32",
        "value": "t_mapping(t_uint256,t_uint256)"
      },
      "t_mapping(t_address,t_struct(UserState)1254_storage)": {
        "encoding": "mapping",
        "key": "t_address",
        "label": "mapping(address => struct FeeDistributor.UserState)",
        "numberOfBytes": "32",
        "value": "t_struct(UserState)1254_storage"
      },
      "t_mapping(t_contract(IERC20)615,t_bool)": {
        "encoding": "mapping",
        "key": "t_contract(IERC20)615",
        "label": "mapping(contract IERC20 => bool)",
        "numberOfBytes": "32",
        "value": "t_bool"
      },
      "t_mapping(t_contract(IERC20)615,t_mapping(t_uint256,t_uint256))": {
        "encoding": "mapping",
        "key": "t_contract(IERC20)615",
        "label": "mapping(contract IERC20 => mapping(uint256 => uint256))",
        "numberOfBytes": "32",
        "value": "t_mapping(t_uint256,t_uint256)"
      },
      "t_mapping(t_contract(IERC20)615,t_struct(TokenState)1233_storage)": {
        "encoding": "mapping",
        "key": "t_contract(IERC20)615",
        "label": "mapping(contract IERC20 => struct FeeDistributor.TokenState)",
        "numberOfBytes": "32",
        "value": "t_struct(TokenState)1233_storage"
      },
      "t_mapping(t_contract(IERC20)615,t_uint256)": {
        "encoding": "mapping",
        "key": "t_contract(IERC20)615",
        "label": "mapping(contract IERC20 => uint256)",
        "numberOfBytes": "32",
        "value": "t_uint256"
      },
      "t_mapping(t_uint256,t_uint256)": {
        "encoding": "mapping",
        "key": "t_uint256",
        "label": "mapping(uint256 => uint256)",
        "numberOfBytes": "32",
        "value": "t_uint256"
      },
      "t_struct(TokenState)1233_storage": {
        "encoding": "inplace",
        "label": "struct FeeDistributor.TokenState",
        "members": [
          {
            "astId": 1228,
            "contract": "contracts/FeeDistributor.sol:FeeDistributor",
            "label": "startTime",
            "offset": 0,
            "slot": "0",
            "type": "t_uint64"
          },
          {
            "astId": 1230,
            "contract": "contracts/FeeDistributor.sol:FeeDistributor",
            "label": "timeCursor",
            "offset": 8,
            "slot": "0",
            "type": "t_uint64"
          },
          {
            "astId": 1232,
            "contract": "contracts/FeeDistributor.sol:FeeDistributor",
            "label": "cachedBalance",
            "offset": 16,
            "slot": "0",
            "type": "t_uint128"
          }
        ],
        "numberOfBytes": "32"
      },
      "t_struct(UserState)1254_storage": {
        "encoding": "inplace",
        "label": "struct FeeDistributor.UserState",
        "members": [
          {
            "astId": 1249,
            "contract": "contracts/FeeDistributor.sol:FeeDistributor",
            "label": "startTime",
            "offset": 0,
            "slot": "0",
            "type": "t_uint64"
          },
          {
            "astId": 1251,
            "contract": "contracts/FeeDistributor.sol:FeeDistributor",
            "label": "timeCursor",
            "offset": 8,
            "slot": "0",
            "type": "t_uint64"
          },
          {
            "astId": 1253,
            "contract": "contracts/FeeDistributor.sol:FeeDistributor",
            "label": "lastEpochCheckpointed",
            "offset": 16,
            "slot": "0",
            "type": "t_uint128"
          }
        ],
        "numberOfBytes": "32"
      },
      "t_uint128": {
        "encoding": "inplace",
        "label": "uint128",
        "numberOfBytes": "16"
      },
      "t_uint256": {
        "encoding": "inplace",
        "label": "uint256",
        "numberOfBytes": "32"
      },
      "t_uint64": {
        "encoding": "inplace",
        "label": "uint64",
        "numberOfBytes": "8"
      }
    }
  }
}